:100000000C9448090C9470090C9470090C947009B4
:100010000C9470090C9470090C9470090C9470097C
:100020000C9470090C9470090C94211A0C94901A79
:100030000C9470090C9470090C9470090C9470095C
:100040000C9470090C9470090C9470090C9470094C
:100050000C9470090C9470090C9470090C94C21CD7
:100060000C9470090C9470090C9470090C9470092C
:100070000C9470090C9470090C9470090C9470091C
:100080000C9470090C9470090C9470090C9470090C
:100090000C9470090C9470090C9470090C947009FC
:1000A0000C9470090C9470090C9470094543484FE6
:1000B0002049532041204D5953544552592E0A414D
:1000C00020534F554C20464F5247454420494E0A35
:1000D00053494C454E43452E2048452053504541F9
:1000E0004B530A4F4E4C59205649412056494354D0
:1000F0004F52592E004A4144452048415320464F13
:10010000554E442050454143452E0A4E4F572048F6
:1001100045205345454B53204F555445520A444FB3
:100120004D494E414E43452E2048495320464F43AA
:1001300055530A495320504552464543542E0054C6
:1001400055534B2043415252494553205448450A88
:10015000574549474854204F46204B494E47532E58
:10016000204849530A535452454E47544820495356
:10017000205052494D414C0A414E4420535049525F
:10018000495420455445524E414C2E004452494654
:10019000542057414E4445525320574954480A541D
:1001A00048452057494E442E2043414C4D20554E42
:1001B00054494C0A5448452053544F524D20425202
:1001C00045414B532E0A484520495320554E535420
:1001D0004F505041424C452E00534952454E2753F3
:1001E0002047524143452048494445530A41204C49
:1001F000455448414C20545241502E205348450A02
:1002000046494748545320454C4547414E544C5964
:100210000A414E4420444541444C592E004B41472D
:1002200045204D4F56455320494E205448450A53CA
:100230004841444F57532E2041204D41535445527D
:100240000A4F4620535445414C54482E20544845AB
:100250000A5449544C45204953204849532E0056CE
:100260004F4C5420535452494B4553204C494B4515
:100270000A4C494748544E494E472E204445414474
:100280004C592C0A414E442046554C4C204F462098
:10029000454E455247592E0A4E4F4E452043414E3A
:1002A000204F555452554E2048494D2E00474F4C33
:1002B00049415448204953204120464F5243450A62
:1002C0004F46204E41545552452E204D4F554E54C9
:1002D00041494E530A424F5720544F20484953201A
:1002E0004D494748542E0A5448452047524F554ED1
:1002F00044205348414B45532E0043494E444552F8
:100300002052495345532046524F4D0A54484520E8
:1003100041534845532E20412048454152540A4FED
:1003200046204649524520445249564553204849A3
:100330004D0A544F204255524E20414C4C20464FBE
:1003400045532E005A454E495448204841532054A5
:100350005241494E45440A464F522041204C49469D
:100360004554494D452E204849530A57494C4C2085
:10037000495320554E425245414B41424C452E0A6D
:10038000484520434C41494D532044455354494E20
:10039000592E004543484F27532053494C454E435F
:1003A000452049530A42524F4B454E204259204165
:1003B00050504C415553452E0A484520495320542E
:1003C000484520554E4B4E4F574E0A4B494E4720FD
:1003D0004F462046494748544552532E004A41440F
:1003E00045204841532041434849455645440A5019
:1003F000455246454354494F4E2E204849530A44DE
:100400004F4D494E414E4345204953204142534FA1
:100410004C5554452E0A41204E4557204552412007
:10042000424547494E532E005455534B20484153A3
:1004300020524553544F5245440A48495320504591
:100440004F504C45275320484F4E4F522E0A484993
:1004500053204E414D452057494C4C2042450A53AC
:10046000554E4720464F52455645522E004452495C
:10047000465420434F4E54494E5545532048495306
:100480000A4A4F55524E45592041532041204D4173
:10049000535445522E0A5448452057494E4420573C
:1004A000484953504552530A4849532054524955DC
:1004B0004D50482E00534952454E2048415320503C
:1004C000524F56454E20544841540A4245415554D6
:1004D0005920495320444541444C592E0A5348451C
:1004E00020524549474E532053555052454D450AD9
:1004F0004F564552205448452046414C4C454E2EBF
:10050000004B4147452044495341505045415253C7
:1005100020494E544F0A544845204E494748542CD0
:1005200020484953205441534B0A434F4D504C45AA
:1005300054452E20544845204C41444445520A57C6
:1005400041532054484520424547494E4E494E4765
:100550002E00564F4C5420484153204348415247A7
:1005600045440A494E544F20484953544F52592E3E
:10057000204849530A535045454420495320554E7D
:100580004D4154434845442E0A41204C4547454E71
:100590004420495320424F524E2E00474F4C494170
:1005A00054482048415320435255534845440A4536
:1005B00056455259204348414C4C454E4745522ED2
:1005C0000A484520495320544845204E455720505D
:1005D00045414B0A4F462048554D414E20535452F9
:1005E000454E4754482E0043494E44455227532018
:1005F00046495245204841530A434F4E53554D45B5
:100600004420414C4C20464F45532E0A4845205328
:1006100054414E44532041544F50205448450A41C0
:10062000534845532C20544845204B494E472E00F3
:100630005A454E4954482048415320434F4E515546
:10064000455245440A544845204C41444445522EA5
:100650002054484520574F524C440A4B4E4F575355
:1006600020484953204E414D452E204845204953AE
:100670000A53555052454D45204348414D50494F2E
:100680004E2100000006000C00120019001F00257A
:10069000002B00310038003E0044004A0050005654
:1006A000005C00610067006D00720078007D0082D0
:1006B0000087008C009000950099009D00A100A586
:1006C00000A900AD00B000B300B600B900BC00BF87
:1006D00000C100C300C500C700C800CA00CB00CCE1
:1006E00000CD00CE00CE00CF00CF00CF00CF00CF96
:1006F00000CF00CE00CE00CD00CC00CB00CA00C899
:1007000000C700C2BE51234B29C6BE19642855C27A
:10071000BE40404040BEBE64195528C2BE40404065
:1007200040C0C0EA26622EDCB758FC4022C0D2503E
:100730002A54F2C00236384A34ACA8161E2E1EC007
:10074000023E024030C0024A3638FF00000000007E
:100750003E5B4F5B3E3E6B4F6B3E1C3E7C3E1C182F
:100760003C7E3C181C577D571C1C5E7F5E1C00188D
:100770003C1800FFE7C3E7FF0018241800FFE7DB81
:10078000E7FF30483A060E2629792926407F0505DD
:1007900007407F05253F5A3CE73C5A7F3E1C1C081A
:1007A000081C1C3E7F14227F22145F5F005F5F06DF
:1007B000097F017F006689956A606060606094A22D
:1007C000FFA29408047E040810207E201008082A46
:1007D0001C08081C2A08081E101010100C1E0C1EE5
:1007E0000C30383E3830060E3E0E06000000000089
:1007F00000005F00000007000700147F147F14242E
:100800002A7F2A12231308646236495620500008B2
:10081000070300001C2241000041221C002A1C7F0B
:100820001C2A08083E0808008070300008080808E4
:1008300008000060600020100804023E5149453E57
:1008400000427F400072494949462141494D3318D1
:1008500014127F1027454545393C4A494931412109
:100860001109073649494936464949291E000014ED
:100870000000004034000000081422411414141435
:1008800014004122140802015909063E415D594EE7
:100890007C1211127C7F494949363E414141227FF9
:1008A0004141413E7F494949417F090909013E4192
:1008B0004151737F0808087F00417F41002040417B
:1008C0003F017F081422417F404040407F021C02CC
:1008D0007F7F0408107F3E4141413E7F09090906A0
:1008E0003E4151215E7F0919294626494949320373
:1008F000017F01033F4040403F1F2040201F3F40F9
:1009000038403F63140814630304780403615949B1
:100910004D43007F41414102040810200041414104
:100920007F040201020440404040400003070800E9
:1009300020545478407F284444383844444428386C
:100940004444287F385454541800087E090218A4DF
:10095000A49C787F0804047800447D400020404037
:100960003D007F1028440000417F40007C04780453
:10097000787C080404783844444438FC182424184B
:1009800018242418FC7C08040408485454542404F3
:10099000043F44243C4040207C1C2040201C3C4020
:1009A00030403C44281028444C9090907C4464543F
:1009B0004C44000836410000007700000041360832
:1009C0000002010204023C2623263C1EA1A1611262
:1009D0003A4040207A38545455592155557941218F
:1009E00054547841215554784020545579400C1E78
:1009F0005272123955555559395454545939555420
:100A000054580000457C410002457D420001457C70
:100A100040F0292429F0F0282528F07C5455450081
:100A20002054547C547C0A097F4932494949323266
:100A300048484832324A4848303A4141217A3A429D
:100A4000402078009DA0A07D39444444393D404079
:100A5000403D3C24FF2424487E4943662B2FFC2F35
:100A60002BFF0929F620C0887E09032054547941C0
:100A70000000447D413048484A32384040227A00E4
:100A80007A0A0A727D0D19317D2629292F282629F7
:100A900029292630484D4020380808080808080849
:100AA00008382F10C8ACBA2F102834FA00007B0089
:100AB0000008142A142222142A14089500220095F2
:100AC000AA005500AAAA55AA55AA000000FF0010C6
:100AD0001010FF00141414FF001010FF00FF10107E
:100AE000F010F0141414FC001414F700FF0000FFC1
:100AF00000FF1414F404FC141417101F10101F101E
:100B00001F1414141F00101010F0000000001F101C
:100B10001010101F10101010F010000000FF101027
:100B200010101010101010FF10000000FF14000033
:100B3000FF00FF00001F10170000FC04F41414173E
:100B400010171414F404F40000FF00F71414141424
:100B5000141414F700F7141414171410101F101F96
:100B6000141414F4141010F010F000001F101F00E3
:100B700000001F14000000FC140000F010F0101022
:100B8000FF10FF141414FF141010101F00000000B9
:100B9000F010FFFFFFFFFFF0F0F0F0F0FFFFFF00AD
:100BA00000000000FFFF0F0F0F0F0F3844443844C0
:100BB0007C2A2A3E147E02020606027E027E026320
:100BC000554941633844443C04407E201E200602BF
:100BD0007E020299A5E7A5991C2A492A1C4C72019C
:100BE000724C304A4D4D303048784830BC625A46DD
:100BF0003D3E494949007E0101017E2A2A2A2A2ACE
:100C000044445F444440514A444040444A514000B7
:100C100000FF0103E080FF000008086B6B0836123C
:100C2000362436060F090F060000181800000010C1
:100C300010003040FF0101001F01011E00191D17A7
:100C400012003C3C3C3C0000000000F0F89C8E8709
:100C500083878E9CF8F00000FEFF03030303030765
:100C60000EFCF80000FEFF0303030303070EFCF86D
:100C70000000FFFF00000000000000FFFF0000FE7A
:100C8000FF8383838383C7EE7C380000F8FC0E0764
:100C9000030303070EFCF800003F7FE0C08080C024
:100CA000E07F3FFFFF01010101010101FFFF0000A3
:100CB000FFFF0C0C0C0C1C3E77E3C100007FFFC053
:100CC000C0C0C0C0E0703F1F00001F3F70E0C0C048
:100CD000C0E0703F1F00007FFFC1C1C1C1C1E37709
:100CE0003E1C00001F3F70E0C0C0C0E0703F1F000E
:100CF0000000000001FFFF01000000D5F08D14A1ED
:100D0000C881CFD9F1AF200000000000000000F83A
:100D1000FCFEFFFFFFFFFEFCF800000000000000EB
:100D20000000000000000000000000000080E06003
:100D3000B19BDB6B73730F0D0C0C0C0C0C0C1C1C9F
:100D40001C00000000000000000000000003038100
:100D5000E1781E1F306060C08000000000000000CD
:100D60000000000000000000C0E0E030180C0603A6
:100D700000000000000000000107FCC0800000002F
:100D800000000000000000003E2000802000000065
:100D90000000000000000000000000000000000053
:100DA0000000000000E0100804E2E1F1F1F9F93977
:100DB0003939393939393939390101393939393913
:100DC000F9F9F9F9F9F93939393939018181F9F93B
:100DD000F9F979010F04E3F1F1F979393939393940
:100DE000F9F9F9F161010101F9F9F9F9198181CFF5
:100DF000E4E3F9F97939191981C1211F00000000D4
:100E000000000000000000000000000000000000E2
:100E10000080808040404040404040404040404052
:100E200060100C0602637070707173737373737368
:100E300073737F7F7F3F1F0E000000000000007C67
:100E40007F7F7F7F01010000000000787F7F7F7F30
:100E50007F0700103F3F7F7F7F7370707070707CE2
:100E60007C7C3C1C00007F7F7F7F7F7F03071F1FF0
:100E70003F7F7F78606000070D1060404040404039
:100E800040404040404040C0C0800000000000E0C2
:100E90001C030300C0F8FEFEFEDEDEDEDEDEDEDE6C
:100EA0001E1E1E1E1E00E0FEFEFEFEFE1E00E0F8E0
:100EB000FCFEFE1E1E1E1EDEDEDEDEDEDEDE1E0092
:100EC000C0FEFEFEFEFEFEE0E0E0E0E0FEFEFEFE16
:100ED000FE1E00001E1E1E1E1EFEFEFEFEFEFE1E4E
:100EE0001E1E1E1E00C0FCFCFEFEFEDEDEDEDEDE82
:100EF000DEDE1E1E1E1E0000C0FEFEFEFEDEDEDE6C
:100F0000DEDEDEFEFEFEFC7878010102FE00FE81E0
:100F10008080808E8F8F8F8F8781C1C139090909A9
:100F2000F8808080808E8F8F8F8F818080C68F8F9A
:100F30008F8F8F8E8E8E8E8E8F8F8FCFCF8F808064
:100F40008F8F8F8F8F8F80808080808F8F8F8F8FFC
:100F50008F8080F0808080808F8F8F8F8F8F8080B8
:100F6000F01E3020408F8F8F8F8F8F8E8E8E8E8EC3
:100F70008E8E8E8E8E8080808F8F8F8F8F818181DD
:100F800081818F8F8F8F8880808082FF0153454CB5
:100F9000454354204845524F005052455353204139
:100FA000004403FA02AD025F021D02D9018C013F29
:100FB00001F500AC002020003E20004C4144444597
:100FC0005200C2BE51234B29C6BE19642855C2BE69
:100FD00040404040BEBE64195528C2BE404040401B
:100FE000C0C0EA26622EDCB758FC4022C0D2502A8C
:100FF00054F2C00236384A34ACA8161E2E1EC00267
:101000003E024030C0024A3638FF57494E004B2E50
:101010004F2E0050524553532041003006E7059BA8
:101020000552050105B5046D042804DD0393035A38
:10103000454E49544800000C060A0A0C0C4C0100AD
:101040000100020001000043494E44455200000BDC
:101050000508080A0A1902020302010102010047F9
:101060004F4C49415448000F080C0C0E0ECC0001A7
:1010700000010202010300564F4C54000000000C16
:10108000060E0E0C0C190100040300010002004BB7
:10109000414745000000000C0609090B0B800102C6
:1010A00001020100020100534952454E0000000BAD
:1010B000060A0A0C0C66010002000101000000444F
:1010C000524946540000000C060A0A0C0C33010277
:1010D000040302000100005455534B000000000DB2
:1010E000070B0B0D0DE60001010202020203004A8C
:1010F000414445000000000B0609090B0BB3010039
:10110000020101010101004543484F000000000CAD
:10111000060A0A0C0C4C0102000000000002004705
:10112000414D45204F56455200594F552057494E85
:101130002100080B00020202000009040000010265
:10114000020000052400100105240101010424020D
:10115000060524060001070581031000400904016B
:1011600000020A0000000705020240000007058394
:10117000024000000403090412010002EF020140D2
:101180004123368000010102030141726475696EDA
:101190006F204C4C430041726475626F79005A4570
:1011A0004E49544800000C060A0A0C0C4C01000180
:1011B00000020001000043494E44455200000B0567
:1011C00008080A0A19020203020101020100474F3E
:1011D0004C49415448000F080C0C0E0ECC00010085
:1011E000010202010300564F4C54000000000C069F
:1011F0000E0E0C0C190100040300010002004B410B
:101200004745000000000C0609090B0B8001020194
:10121000020100020100534952454E0000000B0636
:101220000A0A0C0C66010002000101000000445291
:101230004946540000000C060A0A0C0C3301020453
:101240000302000100005455534B000000000D073D
:101250000B0B0D0DE60001010202020203004A41E0
:101260004445000000000B0609090B0BB301000206
:101270000101010101004543484F000000000C0638
:101280000A0A0C0C4C0102000000000002003F1D85
:1012900011241FBECFEFDAE0DEBFCDBF11E0A0E02A
:1012A000B1E0ECE3FBE502C005900D92AA34B10772
:1012B000D9F727E0AAE4B1E001C01D92AF39B20727
:1012C000E1F719E0C8E4D9E004C02197FE010E94CB
:1012D000872DC734D107C9F70E94791D0C949C2D26
:1012E0000C9400004F925F926F927F928F929F9228
:1012F000AF92BF92CF92DF92EF92FF920F931F9324
:10130000CF93DF93FB01E00FF11D1E161F060CF0BB
:101310008AC0603471050CF086C0DB0177FF04C021
:10132000AA27BB27A61BB70BA770BB27EB0177FD2E
:101330002796E3E0D595C795EA95E1F777FF07C0D3
:10134000219768E070E0FB01EA1BFB0BDF0130E056
:10135000069506950695802E912C8A01AE0156952C
:10136000542F442757954795480F591F4B585E4FA8
:10137000BE01E0E8F0E07F01E81AF90A88E090E0B9
:101380003C016A1A7B0A6F3FFFEF7F070CF43BC0FA
:1013900090E080E05A01E0E8AE0EB11C6F3F7607A6
:1013A00009F452C0FC01E00FF11FE4916A01C80E7C
:1013B000D91EF0E02F010A2E01C0440C0A94EAF76E
:1013C000F6015080452840821097B1F067307105D2
:1013D00099F0F801E80FF91FE4916501C80ED91ED4
:1013E000F0E02F01062C02C0559447940A94E2F7CE
:1013F000F6015080452840820196821793071CF41D
:10140000E816F90659F66F5F7F4F020F131F405819
:101410005F4FCB018C1B9D0B8815990524F4683018
:10142000710509F0B0CFDF91CF911F910F91FF901F
:10143000EF90DF90CF90BF90AF909F908F907F9074
:101440006F905F904F900895109709F0C2CFD4CF5E
:10145000E5E7F1E0A0E0B8E000800EBC8111012CCE
:101460001197A0FDFDCF0192B9F70DB40895FC01CD
:1014700080917201882311F13FB7F89482E0809344
:10148000E9002091F200822F90E01816190614F45A
:1014900081E090E0882339F0289844E64093710178
:1014A0004091F1004083222339F02091F200211174
:1014B00003C02BE62093E8003FBF08958FEF9FEF16
:1014C00008952FB7F89483E08093E9009091E800A5
:1014D000892F807295FF04C09091F20080E4891BEF
:1014E0002FBF08958091690181110DC082E0809322
:1014F000650184E080936601109268011092670193
:1015000081E08093690185E691E00895CF93DF93B0
:101510001F92CDB7DEB76983DC01ED91FC910280AB
:10152000F381E02D41E050E0BE016F5F7F4F0995F0
:101530000F90DF91CF91089583E08093E90080912F
:10154000F200882319F08AE38093E80008950E944E
:10155000610A90E00895CF93DF931F92CDB7DEB775
:10156000FC018485958597FD08C02FEF3FEF3587F7
:1015700024870F90DF91CF910895CE0101960E94AC
:10158000370A019719F4898190E0F3CF8FEF9FEF2D
:10159000F0CF0F931F93CF93DF931F92CDB7DEB79A
:1015A0008C01FC018485958597FF0BC0CE010196C7
:1015B0000E94370A019771F4898190E0F8019587BC
:1015C0008487F801848595850F90DF91CF911F91D5
:1015D0000F9108958FEF9FEFF1CFFC0184859585E2
:1015E00097FD0BC09FB7F89482E08093E90080914B
:1015F000F2009FBF90E0019608959FB7F89482E0B3
:101600008093E9008091F2009FBF90E0089540919F
:101610005F015091600120915D0130915E014217A0
:101620005307B4F49091E8009570E1F39091E800CD
:1016300092FD19C08093F10080915F01909160014B
:1016400001968F739927892B19F48EEF8093E80008
:1016500080915F0190916001019690936001809369
:101660005F0181E0089580E00895DF92EF92FF929C
:101670000F931F93CF93DF93D82E8A01EB017B0149
:10168000E40EF51ECE15DF0559F0D7FE12C0FE019F
:1016900084910E94070B21968111F4CF0FEF1FEF69
:1016A000C801DF91CF911F910F91FF90EF90DF90D4
:1016B00008958881EECF0F931F93CF93DF931F92EE
:1016C000CDB7DEB782E0898342E450E062E371E1A6
:1016D00080E80E94350B0E94720ADC0112960D917F
:1016E0001C910115110589F0D801ED91FC91028042
:1016F000F381E02DBE016F5F7F4FC801099597FD13
:1017000004C0F80100851185ECCF89810F90DF912D
:10171000CF911F910F910895615030F02091F10009
:10172000FC0120830196F8CF289884E6809371010C
:1017300008953FB7F8948091590190915A01A09172
:101740005B01B0915C0126B5A89B05C02F3F19F045
:101750000196A11DB11D3FBFBA2FA92F982F882731
:10176000BC01CD01620F711D811D911D42E0660F0C
:10177000771F881F991F4A95D1F708958F929F92DE
:10178000AF92BF92CF92DF92EF92FF926B017C01FA
:101790000E94990B4B015C01C114D104E104F104D6
:1017A000B9F00E94990B681979098A099B09683E6A
:1017B00073408105910580F321E0C21AD108E10848
:1017C000F10888EE880E83E0981EA11CB11CE4CFBE
:1017D000FF90EF90DF90CF90BF90AF909F908F9051
:1017E00008958F929F92AF92BF92CF92DF92EF9225
:1017F000FF920F931F93CF93DF936C017B018A01BC
:1018000080910C01882309F45CC0809172018823C7
:1018100009F457C08091640180FF05C08091E00009
:1018200082608093E000E801B12C8AEFA82E93E05B
:10183000892E2AE3922E209711F4BB20D9F10E9421
:10184000610A81110AC0AA94AA20D9F161E070E06E
:1018500080E090E00E94BE0BEECF8C171D0611F0C9
:101860000CF08C2F9FB7F8948092E9002091E8004B
:1018700025FD02C09FBFDFCF282F30E0C21BD30B56
:10188000F701815020F041914093F100FACFE20E30
:10189000F31EBB2021F09092E800B12CEBCF809199
:1018A000E80085FDE7CF9092E800BB24B394209731
:1018B00009F3F3CF5D9884E6809363011016110657
:1018C0003CF081E090E0F6019383828310E000E039
:1018D000C801DF91CF911F910F91FF90EF90DF90A2
:1018E000CF90BF90AF909F908F900895AF92BF928E
:1018F000CF92DF92EF92FF920F931F93CF93DF93DC
:101900006C017B018B01040F151FEB015E01AE180A
:10191000BF08C017D10759F06991D601ED91FC912C
:101920000190F081E02DC6010995892B79F7C50159
:10193000DF91CF911F910F91FF90EF90DF90CF90AB
:10194000BF90AF9008952D9A0895BC0190E080E07B
:101950000C94BE0B8FB18095807F669B88601C9B2A
:1019600084600895480F592F511D14161506D4F59B
:1019700080389105BCF597FF02C090E080E04138C7
:10198000510514F040E850E0481BFB0177FD379605
:1019900033E0F595E7953A95E1F7F695FE2FEE27BA
:1019A000F795E795E80FF91FEB58FE4F677077271B
:1019B00081E090E001C0880F6A95EAF7382F213066
:1019C00041F4415078F08191DF011197832B8C9382
:1019D000F8CF8095415030F09191DF011197982315
:1019E0009C93F8CF089590914A01982329F49091FF
:1019F0004B01982381E009F480E008954F925F92B3
:101A00006F927F928F929F92AF92BF92FF920F93AD
:101A10001F93CF93DF938C01EB01F42E84E14111EE
:101A200001C088E0809396078FE0F11001C085E047
:101A3000809397078C85882321F180E20E94F30C24
:101A4000882309F188898830F0F41F861E868A89E8
:101A5000875E853664F58A8B8BE090E0F801978786
:101A6000868788E2808BDF91CF911F910F91FF9045
:101A7000BF90AF909F908F907F906F905F904F90AE
:101A8000089580E4DBCF29E1F11014C0F8018685C8
:101A900097858530910569F08E30910551F0883039
:101AA000910519F02AE0419729F42CE003C084E65F
:101AB000D2CF28E0F801EC54FF4F8081F8E18F9FEE
:101AC000C001112450E040E030E08A559E4EFC01F8
:101AD000E40FF51FE4913E0F4F5F5F4F4630510515
:101AE000B1F72303C00111246EE370E00E94732D4F
:101AF000862F20E035E0F11002C020E033E0F8014D
:101B0000408051806280738088809980AA80BB80E9
:101B1000481459046A047B0494F53987288735955D
:101B200027953195219531093187208739892A896F
:101B30004E855F854230510559F565E00E94512D73
:101B4000381B398B8885998597FD019695958795E2
:101B5000998788872E5F2A8BF80182898B5F828B19
:101B6000898987FD198A8A8985361CF184E68A8BE2
:101B7000F801828985360CF184E6828B74CF442784
:101B80005527421B530B5987488735952795CCCF4E
:101B9000361B398B8AE090E09F878E878EE1F110AB
:101BA00001C08FE0888B2B5F2A8BF8018289865FCA
:101BB000D6CF87FFDDCF1A8ADBCF87FF54CF128ABB
:101BC00052CFCF93C82F0E94AA0C982F9C2381E05C
:101BD0009C1380E0CF91089580E00C94280A80380F
:101BE0009105B8F460347105A0F420E191E061FD45
:101BF00094E060FD990F62FD9295687F269FD00169
:101C00001124A80FAB58BE4F8C9140FF03C0892B05
:101C10008C93089590958923FBCF2F923F924F92FA
:101C20005F926F927F928F929F92AF92BF92CF926C
:101C3000DF92EF92FF920F931F93CF93DF93EC010C
:101C40008B017A016901C61AD70AD7FE03C0D19465
:101C5000C194D10847018C1A9D0A97FE03C0919444
:101C6000819491088C149D0454F49E2D8F2D79013C
:101C7000292F382F9C2F8D2FE801092F182FEC16B4
:101C8000FD0654F4902F812F8901292F382F9C2F86
:101C90008D2FE701E92EF82E17012C1A3D0A290194
:101CA000401A510A57FE03C0519441945108310122
:101CB00037FE03C08FEF681A780A759467948FEF28
:101CC000021713070CF481E0A82E880FBB08EC164E
:101CD000FD06A4F041E0BE01C8018C149D0414F07F
:101CE000B801CE010E94EF0D6418750877FE04C09C
:101CF0000A0D1B1D620C731C2196E9CFDF91CF9159
:101D00001F910F91FF90EF90DF90CF90BF90AF9019
:101D10009F908F907F906F905F904F903F902F900B
:101D200008952F923F924F925F926F927F928F927F
:101D30009F92AF92BF92CF92DF92EF92FF920F935A
:101D40001F93CF93DF9300D000D0CDB7DEB77C01D7
:101D50008B01242F30E03C832B8381E090E05C01F9
:101D6000A21AB30A1901319421943108220C331CB0
:101D7000B901600F711F41E0C7010E94EF0DB8016A
:101D80008B819C81681B790B41E0C7010E94EF0D9C
:101D900041E0B8018B819C818E0D9F1D0E94EF0D4B
:101DA00041E0B801C7012B813C81821B930B0E944B
:101DB000EF0DD12CC12C81E090E09A8389832B8197
:101DC0003C81C216D3060CF05DC0B7FC09C021509F
:101DD00031093C832B8332E0230E311CA20CB31C4F
:101DE0008FEFC81AD80A29813A812E5F3F4F3A8374
:101DF0002983A20EB31E37016C0C7D1C41E08B8041
:101E00009C80800E911EB401C3010E94EF0D27013A
:101E10004C185D0841E0B401C2010E94EF0D41E0A1
:101E200048018B819C81881A990AB401C3010E94E0
:101E3000EF0D41E0B401C2010E94EF0D4601800E9A
:101E4000911E41E0B4016B807C806E0C7F1CC3014D
:101E50000E94EF0D41E0B40127012B813C81421A21
:101E6000530AC2010E94EF0D48018C189D0841E001
:101E7000B401C3010E94EF0D41E0B401C2010E9410
:101E8000EF0D9DCF0F900F900F900F90DF91CF919E
:101E90001F910F91FF90EF90DF90CF90BF90AF9088
:101EA0009F908F907F906F905F904F903F902F907A
:101EB00008958F929F92AF92BF92CF92DF92EF924E
:101EC000FF920F931F93CF93DF936D3089F0C090F3
:101ED0004C01D0904D016A30D1F410924F01109214
:101EE0004E0188E0C80ED11CD0924D01C0924C0129
:101EF00081E090E0DF91CF911F910F91FF90EF90E3
:101F0000DF90CF90BF90AF909F908F9008950091F9
:101F10004E0110914F01E5E06E9FE0011124C55B79
:101F2000D84F4801F12CF5E0E12CFF1629F0CE0145
:101F30000196FE01E490EC01B12CA12C4E2D4170D4
:101F4000B6016A0D7B1DC4010E94EF0DE694FFEF00
:101F5000AF1ABF0A88E0A816B10481F7F394EFEF37
:101F60008E1A9E0AF6E0FF12DECF0A5F1F4F109313
:101F70004F0100934E01BCCF0F931F93CF93DF937C
:101F80008C01D0E0C0E0F801EC0FFD1F64916623E6
:101F900041F085EC95E00E94590F892B11F02196B4
:101FA000F2CFCE01DF91CF911F910F910895DF9273
:101FB000EF92FF920F931F93CF93DF937C01D22E6A
:101FC0008B01040F111DEB0177FF02C0D0E0C0E0D0
:101FD000C8010134110514F080E490E0C817D90756
:101FE0003CF44D2DBE01C7010E94EF0D2196F0CFAC
:101FF000DF91CF911F910F91FF90EF90DF900895A7
:10200000DF92EF92FF920F931F93CF93DF937B01A9
:10201000D22EEC018C01040F111DC017D10744F41E
:1020200021E04D2DB701CE010E94D70F2196F5CFAB
:10203000DF91CF911F910F91FF90EF90DF90089566
:10204000CF92DF92EF92FF920F931F93CF93DF9384
:10205000EC0121E045E068E070E00E94D70F7E01CE
:102060008FEFE81AF80A21E045E068E070E0C70168
:102070000E94D70F6E0182E0C80ED11C21E043E020
:1020800069E070E0C6010E94D70F8E01015011096E
:1020900021E045E068E070E0C8010E94D70F229778
:1020A00021E043E069E070E0CE010E94D70F21E01B
:1020B00043E069E070E0C6010E94D70F21E045E0EF
:1020C00068E070E0C7010E94D70F21E043E069E0BB
:1020D00070E0CE010E94D70F21E045E068E070E09B
:1020E000C801DF91CF911F910F91FF90EF90DF908A
:1020F000CF900C94D70FCF92DF92EF92FF920F9375
:10210000CF93DF936C017B01C42FD22F6034710514
:1021100020F4202FC6010E94B20CB7016D0F711D73
:10212000615071096034710528F4202F4C2FC601CD
:102130000E94B20C202F4D2FB701C6010E94D70F6D
:10214000C6018C0F911D202F4D2FB7010197DF91F4
:10215000CF910F91FF90EF90DF90CF900C94D70F1D
:102160005F926F927F928F929F92AF92BF92CF9227
:10217000DF92EF92FF920F931F93CF93DF937C0137
:102180006B015A01522EC1E0093711050CF4C0E071
:10219000F501808144E08823C1F143E08130A9F555
:1021A0004C2F440F495F8C2F90E00396B601681BBB
:1021B000790B01E0242FF701E81BF90BCF010E94F6
:1021C0007B10F5018181813031F5D0E00DEF1FEFFB
:1021D0000C1B1D0BCE01880F991F3601F5E06F1AFD
:1021E0007108681A790A239646018C1A9D0AC0174D
:1021F000D10754F1C8018E0D9F1D9301AC01B401AC
:102200000E940D0E0E5F1F4FF2CF4C0FB601C7019B
:102210000E94910ED6CF823009F051C08C2F90E0F1
:102220009C012E5F3F4FB601621B730B603471053A
:1022300058F44C2F440F495F039621E0F701E81B47
:10224000F90BCF010E94B20CCFEF511001C0C1E0D9
:10225000F501828181114EC0CC0FDD0B41E086017A
:1022600001501109B801C7018C1B9D0B0E94EF0D95
:1022700041E0B801C7018C0F9D1F0E94EF0DF501D1
:102280008481811151C0B6016E5F7F4F603471054A
:1022900008F04AC021E043E0C7010197DF91CF91E8
:1022A0001F910F91FF90EF90DF90CF90BF90AF9074
:1022B0009F908F907F906F905F900C94B20C8430C1
:1022C00019F686E0982E9C0ED0E0249621E0492D48
:1022D000860102501109B801C7018C1B9D0B0E9499
:1022E000D70F21E0492DB801C7018C0F9D1F0E9417
:1022F000D70FAACF823019F6E60121979E01A701D8
:1023000041505109860102501109B801C7010297D5
:102310000E940D0E9801A7014E5F5F4FBE01C701DD
:1023200001960E940D0EABCFDF91CF911F910F91BF
:10233000FF90EF90DF90CF90BF90AF909F908F90E5
:102340007F906F905F900895089590E080E00895E9
:10235000E82FEF738295869586958370F0E039F4C7
:10236000EE0FFF1FED57F94F85919491089581303D
:1023700039F48FE390E09C012E1B3F0BF901F0CF65
:10238000823051F4EE0FFF1FED57F94F8591949174
:1023900091958195910908958FE390E09C012E1B02
:1023A0003F0BF901EFCF2F923F924F925F926F92C6
:1023B0007F928F929F92AF92BF92CF92DF92EF92D5
:1023C000FF920F931F93CF93DF93CDB7DEB72D9777
:1023D0000FB6F894DEBF0FBECDBF8C017B015E83CC
:1023E0004D832A83FC01EB54FF4F80818C5F8083F7
:1023F0000E94A81146E0959587954A95E1F7D80186
:1024000094964C9150E070E060E0AA24B42EC52E62
:10241000D62EAF82B886C986DA868983B82EBB0CE1
:10242000BB82282F87FF02C021E0280F25952C832F
:10243000AD80BE80B694A794B694A79495012370FE
:1024400033273E832D83580133E1A30EB11C1801BD
:1024500083E4280E311C47011C869A8191509B878A
:10246000D50111968C91811128C0CC84C110ABC0CC
:10247000D4015C91CA80C11011C0DC84D11002C0AB
:10248000C9805C0D8C858250823010F4DB805D1930
:102490008C858450823010F4CC805C0DD1014C913D
:1024A000E52FE41BFF0BCF019F012F5F3F4F233030
:1024B000310508F0A1C05C9303C02C852630C0F222
:1024C000F101C1901F01CD86D8011C962C912223C9
:1024D00021F080E8D82EDC18DD86D5018C918F3F65
:1024E00009F0A7C0F801C080D180E280F380448069
:1024F0005580668077808F819885A985BA85481A2E
:10250000590A6A0A7B0A868597858330910519F0F6
:102510000D97069720F494E0590E611C711CAB8551
:10252000A43040F4ED81FE81EF2B21F4F1E05F1A3D
:10253000610871083C85343009F068C080E09EEF86
:10254000AFEFBFEF222321F080E092E0A0E0B0E007
:10255000C80ED91EEA1EFB1E8D85805C0E94A81144
:10256000D50111962C9130E0DC010E94952D662753
:10257000C60ED71EE81EF91EF501C4AED5AEE6AEF6
:10258000F7AE8D850E94A811F501E459FF4FD501E2
:1025900011962C9130E0DC010E94952D6627460EA5
:1025A000571E681E791E4082518262827382BC85EA
:1025B000BF5FBC87E4E0AE0EB11CFFEF8F1A9F0A2D
:1025C000BC3009F04DCF2D960FB6F894DEBF0FBE8C
:1025D000CDBFDF91CF911F910F91FF90EF90DF90D2
:1025E000CF90BF90AF909F908F907F906F905F90B3
:1025F0004F903F902F900895F7FD039695958795FE
:1026000095958795840FD1018C935ACF8C85853011
:1026100009F0A2CF80E092E0A0E0B0E0211104C078
:1026200080E09EEFAFEFBFEFC81AD90AEA0AFB0AB3
:1026300093CFA4E08A02C0011124800F911FFC01F6
:10264000E15BFF4FC080D180E280F38081589F4FD3
:10265000FC014080518062807380FC85F23009F477
:102660006DCF3C85333009F077CFD4CFFC0101909A
:102670000020E9F73197AF01481B590BBC0185ECED
:1026800095E00C94760C0C94BC2CCF92DF92EF92D8
:10269000FF926B017C01C114D104E104F10441F00B
:1026A0000E94542CA70196010E94D22C6B017C0140
:1026B000C701B601FF90EF90DF90CF9008952F9261
:1026C0003F924F925F926F927F928F929F92AF92C2
:1026D000BF92CF92DF92EF92FF920F931F93CF930F
:1026E000DF93CDB7DEB764970FB6F894DEBF0FBEA9
:1026F000CDBF69877A878B879C872D873E874F87D9
:10270000588BE98AFA8A0B8B1C8B4090D30550902A
:10271000D405052C000C66087708882009F4C6C08B
:1027200065E070E080E090E00E944513625071091E
:10273000810991094B0165E070E080E090E00E9422
:10274000451362507109810991098091CB059091DF
:10275000CC05A091CD05B091CE0589839A83AB833A
:10276000BC8390E4890E911C8091CF059091D00597
:10277000A091D105B091D2058D839E83AF83B88798
:102780001B0190E2290E311CA60195018D819E81CD
:10279000AF81B885281B390B4A0B5B0BC301B20113
:1027A0000E94352D24E6C22ED12CE12CF12CA7015C
:1027B00096010E94D22C232F342F452F552747FDF9
:1027C0005A958101020F131F29893A894B895C8927
:1027D00089819A81AB81BC81281B390B4A0B5B0B29
:1027E000C301B2010E94352DA70196010E94D22C8F
:1027F000232F342F452F552747FD5A955401A20EFC
:10280000B31E2D853E854F8558898D819E81AF8170
:10281000B885281B390B4A0B5B0BC301B2010E9420
:10282000352DA70196010E94D22C232F342F452F3E
:10283000552747FD5A95220E331E29853A854B852B
:102840005C8589819A81AB81BC81281B390B4A0B3D
:102850005B0BC301B2010E94352DA70196010E94B6
:10286000D22CBB2757FDBA95A52F942F832F880D07
:10287000991D9801A501B10164960FB6F894DEBFC9
:102880000FBECDBFDF91CF911F910F91FF90EF90C1
:10289000DF90CF90BF90AF909F908F907F906F9080
:1028A0005F904F903F902F900C940D0E912C812CA7
:1028B00070E060E04ACF2F923F924F925F926F920A
:1028C0007F928F929F92AF92BF92CF92DF92EF92C0
:1028D000FF920F931F93CF93DF9300D01F92CDB73A
:1028E000DEB74B015C0129013A0109838E2D20914D
:1028F000D3053091D4053B832A836901330FEE0859
:10290000FF08882309F489C065E070E080E090E06A
:102910000E94451362507109810991091B0165E00C
:1029200070E080E090E00E9445138B019C01025012
:102930001109210931098981282F880F330BAA81B8
:10294000BB810E948D2D24E630E040E050E00E94E3
:10295000D22C2983121614F021E029838091CF050F
:102960009091D005A091D105B091D205A30192011B
:10297000281B390B4A0B5B0BC701B6010E94352D92
:1029800024E6422E512C612C712CA30192010E944D
:10299000D22C232F342F452F552747FD5A95005E03
:1029A0001F4F020F131F8091CB059091CC05A09172
:1029B000CD05B091CE05A5019401281B390B4A0B1A
:1029C0005B0BC701B6010E94352DA30192010E9445
:1029D000D22CBB2757FDBA95A52F942F832F30E417
:1029E000230E311C820D931D4981B8010F900F9069
:1029F0000F90DF91CF911F910F91FF90EF90DF909B
:102A0000CF90BF90AF909F908F907F906F905F908E
:102A10004F903F902F900C94910E312C212C10E070
:102A200000E089CF2F923F924F925F926F927F92F8
:102A30008F929F92AF92BF92CF92DF92EF92FF92CE
:102A40000F931F93CF93DF93CDB7DEB7A3970FB646
:102A5000F894DEBF0FBECDBF3C01698FFC01EC5482
:102A6000FF4F608108E1609FB001112462567E4EE5
:102A700048E150E0CE0101960E94AC2CD30194961F
:102A80008C9190E0B0E0A0E0EE24F82E092F1A2FF0
:102A9000EA8EFB8E0C8F1D8F130103E1200E311C7B
:102AA000912C93012D573F4F39A328A3A3014D5AD1
:102AB0005F4F5BA34AA3D10111968C91811102C093
:102AC00091100AC1F10120812F3F09F04BC0D301C1
:102AD0006D917D918D919C91139714962D913D91BF
:102AE0004D915C911797EA8CFB8C0C8D1D8D2E19E6
:102AF0003F09400B510B1E96ED91FC91E330F1051F
:102B000019F03D97369718F43C5F4F4F5F4F14E034
:102B1000F12EB5E09F103EC0D3011C96EC91C12C64
:102B2000BEEFDB2EEE24EA94FE2CEE2329F0C12C1E
:102B3000A2E0DA2EE12CF12C6C0D7D1D8E1D9F1D67
:102B4000F101E459FF4FA080B180C280D380D10150
:102B5000DC96ED90FD900D911C91DF97898C0E9481
:102B60005F13B3C0B4E02B0290011124260D371D72
:102B7000F901E15BFF4F608171818281938121586E
:102B80003F4FF9012081318142815381F2E0B3E06E
:102B90009F1611F29B1215C0D3011C96EC91C12C0B
:102BA000FEEFDF2EEE24EA94FE2CEE2329F0C12C5A
:102BB000E2E0DE2EE12CF12C6C197D098E099F09D3
:102BC000BFCFB1E09B12BCCFA090D305B090D4058D
:102BD0000B2C000CCC08DD08E98DEE2309F495C020
:102BE00065E070E080E090E00E944513625071095A
:102BF000810991097B0165E070E080E090E00E942E
:102C000045138B019C0102501109210931094090A3
:102C1000D3055090D405A8A1B9A12D913D914D9116
:102C20005C918091CF059091D005A091D105B09194
:102C3000D205281B390B4A0B5B0BC601B5010E945C
:102C4000352D24E630E040E050E00E94D22C232FC6
:102C5000342F452F552747FD5A95005E1F4FF80129
:102C6000E20FF31FFF8FEE8FAAA1BBA12D913D9123
:102C70004D915C918091CB059091CC05A091CD05B3
:102C8000B091CE05281B390B4A0B5B0BC601B50171
:102C90000E94352D24E630E040E050E00E94D22C26
:102CA000BB2757FDBA95A52F942F832F9701205C42
:102CB0003F4F820F931F8201F3012485AE014F5EC7
:102CC0005F4F6E8D7F8D0E94B0109394B4E02B0EF9
:102CD000311CECE09E12EFCEA3960FB6F894DEBF47
:102CE0000FBECDBFDF91CF911F910F91FF90EF905D
:102CF000DF90CF90BF90AF909F908F907F906F901C
:102D00005F904F903F902F900895F12CE12C10E0B0
:102D100000E07DCF2F923F924F925F926F927F9211
:102D20008F92AF92BF92CF92DF92EF92FF920F936A
:102D30001F93CF93DF9300D000D0CDB7DEB7809044
:102D40009607A12C48E7B42EC12CD12CE12C18EE0B
:102D5000F12E03E010E020E038E740E050E060E0D2
:102D600078E18CEF9FEF0E945F138091990766E0F6
:102D70000E94452D933009F459C208F080C191306A
:102D800009F4D4C1412C62EA562E6EEF662E7724E8
:102D90007A94923009F40DC2412C30E7532E3EEF65
:102DA000632E77247A9480909607A12C9AE5B92E09
:102DB000C12CD12C8301720120E038E740E050E0C3
:102DC000C301B2010E945F132FE0F21A0109110939
:102DD00080909607A12C2FE5B22EC12CD12C20E09B
:102DE0003AE540E050E0C301B2010E945F13830165
:102DF000720181EFF81A0F4F1F4F8090960720E065
:102E00003AE540E050E0C301B2010E945F1398EC44
:102E1000590E611C711C4114A8E55A06A2E06A060D
:102E2000710409F6C090D305D090D4050D2C000C88
:102E3000EE08FF088091CF059091D005A091D105B3
:102E4000B091D20520E038E740E050E0281B390B74
:102E50004A0B5B0BC701B6010E94352D24E6422EBA
:102E6000512C612C712CA30192010E94D22C232F92
:102E7000342F452F552747FD5A95D9019196BA838E
:102E8000A9832091D5053091D6054091D705509161
:102E9000D8058091CB059091CC05A091CD05B0913E
:102EA000CE05281B390B4A0B5B0BC701B6010E94EC
:102EB000352DA30192010E94D22CBB2757FDBA9554
:102EC000A52F942F832FC69621E044E169817A8152
:102ED0000E9400106091960785ED95E00E94121502
:102EE000609196078BE896E00E9412158091880702
:102EF0008823A1F0209182073091830740918407B5
:102F00005091850760917E0770917F0780918007BF
:102F100090918107E12C04E00E945B14809194075A
:102F20008823A1F020918E0730918F074091900760
:102F30005091910760918A0770918B0780918C075F
:102F400090918D07E12C04E00E945B1401E025E0E4
:102F500044E362E070E082E090E00E947B104091E8
:102F6000E60547FD4F5F459523E063E070E083E0B1
:102F700090E00E94001001E025E044E362E070E090
:102F80008AE490E00E947B1040919C0647FD4F5FD1
:102F9000942F959523E0492F63E070E0EDE7F0E092
:102FA000DF01A91BB10997FDB395CD010E94001067
:102FB00080919A07882321F082E090E00E942010FF
:102FC00080919A07823020F088E090E00E942010E3
:102FD00080919B07882321F08DE790E00E942010CC
:102FE00080919B07823020F087E790E00E942010BC
:102FF00001E025E044E36AE370E082E090E00E94B3
:103000007B104091E70547FD4F5F459523E06BE35B
:1030100070E083E090E00E94001001E025E044E3CE
:103020006AE370E08AE490E00E947B1040919D0684
:1030300047FD4F5F942F959523E0492F6BE370E098
:10304000EDE7F0E0DF01A91BB10997FDB395CD01D4
:103050000F900F900F900F90DF91CF911F910F91D4
:10306000FF90EF90DF90CF90BF90AF908F907F90C8
:103070006F905F904F903F902F900C940010943081
:1030800009F429C1953009F087CE809173019091A0
:10309000740104969093740180937301512C412C18
:1030A000712C612CA0E92A2E332433948091730172
:1030B00090917401840D951D66E970E00E945F2D6A
:1030C0005C01ACE2AA1AB1080B2C000CCC08DD089C
:1030D000DC2CCB2CBA2CAA24C301B1010E94732D85
:1030E0007C01B6ECEB1AF1080F2C000C000B110B55
:1030F000102F0F2DFE2CEE24A6019501365041090C
:103100005109C801B7017250810991098090960751
:103110000E945F1327E4620E711C85E2480E511C69
:1031200099E2691694E0790609F67CCE80909607BC
:10313000A12C79E6B72EC12CD12CE12C18E3F12E6D
:103140000FEF1FEF20E033E740E050E060E07CE06D
:103150008EEF9FEF0E945F1380909607A12CF3E7FC
:10316000BF2EC12CD12CE12C14E6F12E00E010E092
:1031700020E039E640E050E060E078E38FEF9FEF39
:103180000E945F1380909607A12CB4E6BB2EC12C41
:10319000D12CE12C10E9F12E01E010E020E033E722
:1031A00040E050E060E074E680E090E00E945F1351
:1031B00039CED301C2019C5EAF4FBF4F89839A8342
:1031C000AB83BC8380909607A12C49E6B42EC12C1A
:1031D000D12C7C018D0120E038E740E050E0C301B4
:1031E000B2010E945F138301720198EDF91A0F4F2B
:1031F0001F4F80909607A12C58E7B52EC12CD12CDB
:1032000020E039E640E050E069817A818B819C8141
:103210000E945F13A6E95A0E611C711C4114B0E9AB
:103220005B06B1E06B06710421F6FCCDE0909607D9
:1032300004E120E038E740E050E060E070E0CB01DE
:103240000E945B1420E4298338E0632E712C89816D
:103250000E94A8118C01898180540E94A811AEE1BE
:10326000A89F5001A99FB00C1124AB2CBB0CBB082C
:103270000B2C000CCC08DD08B8E7AB0EB11CC11C50
:10328000D11CDC2CCB2CBA2CAA24A09F7001A19FAE
:10329000F00C1124EF2CFF0CFF080F2C000C000B7E
:1032A000110B102F0F2DFE2CEE248090960720E09E
:1032B00038E740E050E060E070E0CB010E945F132F
:1032C00021E0621A71088981805E8983611471042A
:1032D00009F0BDCFA7CDE09096070AE020E03EECD4
:1032E0004FEF5FEF60E070EB8FEF9FEF0E945B149A
:1032F000E090960708E020E03EEC4FEF5FEF60E0E3
:1033000074EB8FEF9FEF0E945B148CCDEF92FF92D6
:103310000F931F93CF93DF93CDB7DEB76E970FB6A2
:10332000F894DEBF0FBECDBF7C01162FFC01EC541C
:10333000FF4F6083FC01208331834283538380E00D
:1033400098E7A0E0B0E084839583A683B7831186D5
:103350001086138612860487158617861686108AAD
:1033600084E6818B128AEF54FF4F118210823296CD
:1033700010826FEF70E080E090E00E944513F7014B
:10338000EB54FF4F6083F8E11F9FB0011124625698
:103390007E4E48E150E0CE0101960E94AC2CF70130
:1033A000E155FF4F8F8598899183808389859FEFB1
:1033B000F701938B848B158A81E0868B2A85178A87
:1033C000208F118E828F2B85138E248F858F868F71
:1033D0002C85178E20A381A382A32D8593A324A3DC
:1033E00085A386A32E8597A320A781A782A714A6CD
:1033F00010AA14AA10AE14AEE05CFF4F108246E093
:1034000050E063E077E0CE0149960E94AC2CFE01CB
:103410007996D701AD5BBF4F89E4E80EF11C81912D
:103420008D93EA16FB06D9F76E960FB6F894DEBFB9
:103430000FBECDBFDF91CF911F910F91FF90EF9005
:1034400008951F920F920FB60F9211248F939F939E
:103450008091E1009091E100937F9093E10083FFE0
:103460000FC01092E90091E09093EB001092EC00F5
:1034700092E39093ED001092720198E09093F00027
:1034800082FF22C093E09093E9009091F20099238B
:1034900019F09AE39093E80090916301992341F029
:1034A00090916301915090936301911101C05D9AD5
:1034B00090917101992341F09091710191509093F5
:1034C0007101911101C0289A84FF18C08091E20017
:1034D0008E7E81608093E2008091E1008F7E8093F8
:1034E000E100809164018E7E8061809364019F91F0
:1034F0008F910F900FBE0F901F90189580FFF7CF00
:103500008091E2008E7E80618093E2008091E100F4
:103510008E7E8093E100809164018E7E8160E5CF94
:103520001F920F920FB60F921124CF92DF92EF925B
:10353000FF920F931F932F933F934F935F936F933C
:103540007F938F939F93AF93BF93EF93FF93CF930B
:10355000DF93CDB7DEB76C97DEBFCDBF1092E90029
:103560008091E80083FF25C068E0CE0145960E9467
:103570008C0B82EF8093E8008D8987FF39C0909192
:10358000E80090FFFCCF982F907609F034C19E8917
:103590004F89588D2F89F88C911131C0803861F591
:1035A000809162018093F1001092F1008EEF809380
:1035B000E8006C960FB6F894DEBF0FBECDBFDF916A
:1035C000CF91FF91EF91BF91AF919F918F917F919B
:1035D0006F915F914F913F912F911F910F91FF90AC
:1035E000EF90DF90CF900F900FBE0F901F90189527
:1035F0009EEF9093E800C7CF1092F100D5CF9130A5
:1036000059F48111D3CF4130510581F68091620187
:103610008D7F80936201CACF933049F48111C6CF68
:103620004130510519F6809162018260F2CF9530E8
:1036300041F48091E80080FFFCCF20682093E300F4
:10364000B5CF963009F0A9C00B8D1C8D22E01092E9
:10365000E9001092600110925F01F2122EC01092E8
:103660005E0110925D010E945B0B1F8299E09983BD
:10367000FA8291E09E8390EA98879AEF9987209149
:103680005F0130916001275F3F4F3C832B838D8327
:103690001092E9001092600110925F0110935E0198
:1036A00000935D0149E050E0BE016F5F7F4F80E015
:1036B0000E94350B0E945B0B79CF10935E01009343
:1036C0005D010E94720ADC0112960D911C91011598
:1036D000110509F451C1D801ED91FC910480F581E7
:1036E000E02DBE016B5E7F4FC8010995009709F080
:1036F0003EC1F80100851185EACFF3E0FF120EC04C
:103700008F89882309F440C0823061F440E867E083
:1037100086E991E10E940C1D811148CF81E28093DE
:10372000EB0047CF813029F440E86BE08AE891E173
:10373000F1CF833099F70E94720ADC011296ED9066
:10374000FC908E010F5F1F4F6801E114F10479F0C6
:10375000D701ED91FC910680F781E02DB801C701FA
:103760000995080F111DF701E084F184EECFD8010F
:103770001C92F60101900020E9F73197BF016C1906
:103780007D0940E0C601C6CF64E771E1FB014491C9
:1037900050E080E80E94350B09CF973009F4BECF86
:1037A000983021F481E08093F10000CF993009F046
:1037B000FDCE837009F0B2CFEFE1F1E081E031E0BE
:1037C00096E32191222371F08093E9003093EB007E
:1037D000DF0111972C912093EC009093ED008F5F07
:1037E000873079F78EE78093EA001092EA008F899C
:1037F00080937201DBCE8B8D9C8D1092E90010922C
:10380000600110925F0190935E0180935D01898D4C
:10381000811192C08E899D89913A49F4813209F0D3
:103820007DCF47E050E065E071E080E0B3CF9132BA
:1038300009F074CF833269F48F89988DB0E0A0E0ED
:103840008093010190930201A0930301B0930401BE
:10385000ADCE803269F48091E80082FFFCCF67E052
:1038600085E091E00E948C0B8BEF8093E8009ECE68
:10387000823209F09BCE8F8980930C01EEEFFFE737
:10388000859194918B3F9C4D51F1E0E0F8E080915F
:10389000050190910601A0910701B0910801803BBC
:1038A0009440A105B105F1F480910C0180FD1AC08E
:1038B000EE3F8AE0F80789F587E797E791838083F1
:1038C000809160008093610188E19BE00FB6F894DD
:1038D000A895809360000FBE9093600067CEEEEFD6
:1038E000FAE0D5CF808191818737974709F05ECE86
:1038F000A89580916000886180936000809161014B
:1039000080936000EE3F2AE0F20789F08091FE0A82
:103910009091FF0A9183808349CE8081918187377E
:10392000980751F29093FF0A8093FE0AC5CF109238
:10393000FF0A1092FE0A3ACE0E94720ADC01129629
:103940000D911C910115110509F4E8CED801ED91F6
:10395000FC910190F081E02DBE016B5E7F4FC801AC
:103960000995811123CEF80100851185EBCF18163A
:1039700019060CF41BCED2CEF1E0FF12BECE68E7E2
:1039800071E104CF1F920F920FB60F9211242F9363
:103990003F938F939F93AF93BF93809155019091E5
:1039A0005601A0915701B09158013091540123E084
:1039B000230F2D3758F50196A11DB11D20935401F9
:1039C0008093550190935601A0935701B0935801ED
:1039D0008091590190915A01A0915B01B0915C01D5
:1039E0000196A11DB11D8093590190935A01A09396
:1039F0005B01B0935C01BF91AF919F918F913F911B
:103A00002F910F900FBE0F901F90189526E8230F4F
:103A10000296A11DB11DD2CFEF92FF920F931F937B
:103A2000CF93DF93F82E192FE62E042F81E0860F17
:103A3000880F0E94070B83E00E94070BCF2DD12F28
:103A4000EC0EFD2EF11CCE15DF05B9F007FF13C0FB
:103A5000FE0184910E94070B182F80E00E94070B43
:103A6000812321968111EFCFDF91CF911F910F918B
:103A7000FF90EF9008958881EDCF81E0F5CFE5E7E5
:103A8000F5E01382128288EE93E0A0E0B0E0848338
:103A90009583A683B78389E291E0918380838FEF3A
:103AA0009FEF95878487E5ECF5E0138212828BE324
:103AB00091E091838083158214828AE0E1E1F1E054
:103AC000ABECB5E001900D928A95E1F71092960764
:103AD00010929707109298071092990710929A07E0
:103AE00010929B0710929D0710929C0710929E07C0
:103AF0000895CF93DF93CDB7DEB7C859D1090FB67C
:103B0000F894DEBF0FBECDBF789484B5826084BDCB
:103B100084B5816084BD85B5826085BD85B58160D1
:103B200085BD80916E00816080936E00109281004F
:103B3000809181008260809381008091810081600A
:103B400080938100809180008160809380008091CB
:103B500091008260809391008091910081608093B8
:103B60009100809190008160809390008091C100CD
:103B700084608093C1008091C10082608093C10005
:103B80008091C10081608093C1008091C3008160F9
:103B90008093C3008091C00082608093C0008091B8
:103BA000C20081608093C20080917A00846080931B
:103BB0007A0080917A00826080937A0080917A0006
:103BC000816080937A0080917A00806880937A0087
:103BD0001092720110926201109264018091D700DC
:103BE00081608093D70080EA8093D80089B5806196
:103BF00089BD89B5826089BD09B400FEFDCF61E051
:103C000070E080E090E00E94BE0B8091D8008F7C35
:103C100080618093D8008091E000807F8093E000F5
:103C20008091E1008E7E8093E1008DE08093E20040
:103C3000559A209A81EC80937C0085B1806F85B97C
:103C400084B1877E84B984B1876E84B95E9A5F98A7
:103C50008AB1806D8AB9769A6E9881B3806F81BB84
:103C6000899880B38D7080BB80E58CBD81E08DBD6F
:103C700085E090E00E94A50C5F9A85E090E00E94AC
:103C8000A50C5E985C98EBEFFCE088E09DE0249149
:103C90002EBD00000DB407FEFDCF31968E179F0795
:103CA000B1F75C9A81E8809364008091650081603F
:103CB000809365000E94EC0D80E80E94E10D88234E
:103CC000B1F15C9885EA8EBD00000DB407FEFDCF12
:103CD0005C9A2E982F982D98809164008062809332
:103CE000640081E083BF889513BEFCCF0E94A30CC3
:103CF00088EC90E00E94A50C2F9882E090E00E9452
:103D0000BC2C8F3F29F06FEF82E090E00E94C42C22
:103D100084EF91E00E94A50C2F9A84E80E94E10DA7
:103D20008111FBCF0FC088EC90E00E94A50C84E0CD
:103D30000E94E10D882341F12D9884E80E94E10D55
:103D40008111D4CF84E10E94E10D882361F30E94A8
:103D5000A30C88EC90E00E94A50C2E9882E090E0E5
:103D60000E94BC2C882329F060E082E090E00E9451
:103D7000C42C84EF91E00E94A50C2E9A84E10E944D
:103D8000E10D8111FBCFCFCF0E94A30C82E090E028
:103D90000E944313882309F44AC03E9A3F9A81E067
:103DA00090E00E944313182F147081FF0FC011116F
:103DB0002E9801EFE02EFF24FA9480E40E94E10D9A
:103DC0008823C1F12E9A2F9A0E94A30C82E390E0DF
:103DD0000E94A50C0E94AA0C8111F8CF80E180936B
:103DE000000110927D07E1E4F7E08CE3DF011D9212
:103DF0008A95E9F710928807109294078FB7F89484
:103E000040915501509156016091570170915801B0
:103E10008FBF10915201112309F469C01092520111
:103E200080E090E0892B51F30E940000E7CF3E989C
:103E30003F98B5CF112331F024E0E216F10411F4DC
:103E40002E9A2F9881E00E94280A00E128E54BE491
:103E50005CE0B70184E190E00E9472090E94EC0DE1
:103E60008FE090E00E94A50C3FEFE31AF30A89E18E
:103E7000E816F10409F0A1CF112311F02F9A2D9823
:103E800080E991E00E94A50C0E94A30C81E090E0E3
:103E90000E94431380FF9ACF8AE090E00E94431370
:103EA0009FEF980F9E3F08F091CF22E330E03093D0
:103EB0004F0120934E0128E330E030934D012093D1
:103EC0004C010BE010E0682F85EC95E00E94590F43
:103ED000C8010E9443130F5F1F4F0131110599F76D
:103EE0000E94EC0D88EE93E00E94A50C6FCF8091AC
:103EF0005301B42FB81B8B2F90910001B91748F4D0
:103F00008F5F891708F08CCF81E083BF889513BE3F
:103F100087CF81E0809352014093530180915001FB
:103F2000909151010196909351018093500180919D
:103F30004B0180934A010E94AA0C80934B01E5E754
:103F4000F1E011111FEF00241193119311931193BC
:103F50000394D1F710924D0110924C0110924F0131
:103F600010924E01E091C905F091CA05E830F105C3
:103F700008F089C0E254F04E0C94872DC61F4620ED
:103F8000D6203A21C421132B702BD22B00E220E83B
:103F90004DE85DE070E060E090E080E00E94720932
:103FA0008DE290E090934F0180934E018AE290E081
:103FB00090934D0180934C0180919E07811104C024
:103FC00088E89DE00E94BC0F83E491E00E943613D4
:103FD00010929E0788E00E94F30C882331F081E064
:103FE00090E09093CA058093C90500E220E248E082
:103FF0005DE060E270E090E080E00E94720910E015
:1040000000E03801F3E075946794FA95E1F7A5E0D4
:10401000660C771CAA95E1F7BFE7EB2EF12CF301B4
:10402000E957F24F3F014801F0E28F0E911CF30176
:10403000EE19FF09E491D12CC12CAE2EB12CC50193
:104040000C2C02C0959587950A94E2F780FF07C073
:1040500041E0B4016C0D7D1DC7010E94EF0D2FEFF3
:10406000C21AD20A38E0C316D10449F781E0E81A2F
:10407000F1089FE5E916F104D1F6085F1F4F003201
:10408000110509F0BECF0E94EC0DCACE8EE190E082
:1040900090934F0180934E0182E090E090934D0108
:1040A00080934C018DE89FE00E94BC0F5FE2A52E3B
:1040B00050E1B52E912C65E0862E74E1772EE8E173
:1040C0006E2E892D682D0E94452D879D802D1124EF
:1040D000845FE82EF12C969D902D11249B5FC92EB4
:1040E000D12C01E080919807891100E022E144E1A0
:1040F000B701C6010E947B1048E150E0B501CE0136
:1041000001960E94AC2CB701685F7F4F06E910E072
:1041100020E0AE014F5E5F4FC6010A960E94B010CC
:1041200080919807981210C0A8E2B0E0B0934F01B8
:10413000A0934E01E6E3F0E0F0934D01E0934C01D3
:10414000CE0101960E9436139394F8E1AF0EB11C94
:104150002AE09212B6CF80E20E94F30C882339F055
:1041600080919807882319F081508093980780E404
:104170000E94F30C882339F080919807893018F455
:104180008F5F8093980788E00E94F30C882309F4DE
:104190007ACF1092990710929A0710929B0782E0AB
:1041A00090E09093CA058093C9056DCF6091980700
:1041B00038E1639FB0011124615D7F4E48E150E01A
:1041C000CE018F579F4F0E94AC2C05E010E010935A
:1041D0004F0100934E0110934D0100934C01CE010D
:1041E0008F579F4F0E94361321E046E76EE070E044
:1041F00085E090E00E94B20CE0919807F0E0EE0FAD
:10420000FF1FEF55F04F65917491CE0101960E940A
:10421000B52C10934F0100934E0184E190E09093F0
:104220004D0180934C01CE0101960E94361383E22A
:1042300090E090934F0180934E0187E390E090933C
:104240004D0180934C0180915001909151016EE19C
:1042500070E00E945F2D60FF04C089E99FE00E942A
:10426000BC0F88E00E94F30C882309F40CCF83E094
:1042700090E097CF8DE290E090934F0180934E01B4
:1042800085E090E090934D0180934C018BEB9FE093
:104290000E94BC0F909099079A949A9402E110E0C2
:1042A00023E2A22EB12C38E1832ECE0101967C01AF
:1042B00099E0991570F49394055F1F4F0E33110523
:1042C000B9F7809199078A3008F43FC086E090E002
:1042D00068CF80919907B0924F01A0924E01109340
:1042E0004D0100934C01C92CD12C8C151D0451F5A6
:1042F00088EB9FE00E94BC0F989CB0011124615D87
:104300007F4E48E150E0C7010E94AC2CC7010E94DB
:104310003613809199078C151D0469F264F2F70138
:104320008E2F8E1991919111FBCF482F440F480F7A
:10433000440F21E0B8016D5F7F4F8FE290E00E9453
:10434000B20CB9CF85EB9FE0D5CF88E00E94F30C8B
:10435000882309F498CE00E020E03EE140E050E000
:104360006091980785ED95E00E94861901E020E0B4
:1043700034E640E050E0609199078BE896E00E94B7
:10438000861984E090E00DCF10919707112331F04A
:104390001150109397070E948A1675CE8091960748
:1043A000882319F0815080939607E0907D07F12CC7
:1043B0000E94AA0CF701EF5BF84F808380917D0784
:1043C00090E001966CE370E00E94732D80937D076E
:1043D0000EE7E02E07E0F02E85EC282E85E0382E43
:1043E00096E9C92E97E0D92ED7011A968C911A9783
:1043F000882339F118966D917C911997072E000C3E
:10440000880B990B8D909D90AD90BC901397680D83
:10441000791D8A1D9B1DF7016083718382839383BD
:104420004B015C01F8EC9F0EA11CB11C21E082162F
:1044300020E9920621E0A206B10408F4A3C01A966E
:104440001C92FCE0EF0EF11CCE14DF0469F68091A3
:10445000E505882319F081508093E5058091E305F7
:104460009091E405843091050CF015C23091E70578
:104470000091E1053233B4F180917D0790E0CB9655
:104480006CE370E00E94732D50E4D52E60E2C62EDE
:10449000011104C020E2D22E40E4C42EECE3F0E08F
:1044A0004FEF22E09CE3E92EF12C90E0DC01AF5BC2
:1044B000B84F5C91A22FB0E0A55EBE4F6C9166FF35
:1044C000B4C06F7B6C29752F7623223009F0B2C0FF
:1044D000671711F40C94032CCB96B7010E94732D2F
:1044E000319719F7002309F4BBC080E400E20E9471
:1044F000E10D882309F4D1C04091D5055091D6052E
:104500006091D7057091D80580918B0690918C06AB
:10451000A0918D06B0918E06481B590B6A0B7B0B40
:10452000452F562F672F772767FD7A9577FF07C0AE
:1045300070956095509541955F4F6F4F7F4F80917B
:10454000990690919A069C01245031092230310538
:1045500040F0235031092230310518F00C9709F052
:1045600082C042335105610571050CF07CC082E0C8
:1045700090E09093E4058093E3051092DE0510929D
:10458000DD05AAC0F7010385EBE8F6E0011102C0E2
:10459000E5EDF5E080809180A280B380681979090B
:1045A0008A099B09672F782F892F992787FD9A956C
:1045B00044805580668077802AE0521A610871082D
:1045C000D70114968D909D90AD90BC90179784184C
:1045D0009508A608B708892C9A2CAB2CBB24A7FCFD
:1045E000BA949B01AC010E94352D2B013C01A50121
:1045F0009401C501B4010E94352D460E571E681E58
:10460000791EB4E64B165104610471040CF019CF05
:1046100085ED95E0011102C08BE896E040E0BF0116
:104620000E94FE0CF70112860CCF65FF4CCF6F7D08
:104630006D2949CF671751F0603519F0603309F0E3
:104640004BCF60766061652309F446CF451709F4C6
:1046500043CF222311F40C94F62B2150452F3CCF4D
:1046600080E200E444CF8091DD059091DE05209149
:10467000E105222379F02CE430E0820F931F909320
:10468000DE058093DD0581E090E09093E405809362
:10469000E30522C024EB3FEFF0CF80E10E94E10D63
:1046A000882309F477C083E090E09093E405809339
:1046B000E3051092DE051092DD0588E00E94F30C00
:1046C000882309F459C08DE090E09093E40580932D
:1046D000E30588E08093E505809184069091850646
:1046E0002091DD053091DE058217930724F4909325
:1046F000DE058093DD059195819591092091DD0579
:104700003091DE052817390724F49093DE05809355
:10471000DD0580E80E94E10D882369F08091E205C3
:10472000811109C080E89BEF9093E0058093DF053D
:1047300081E08093E20588E00E94E10D811160C074
:1047400088E00E94F30CE090E305F090E40581110D
:1047500093C084E00E94F30C882309F469C030E11F
:10476000E316F10409F464C087E090E09093E40557
:104770008093E3058AE08CC084E00E94F30C8823D8
:1047800009F4AACF80E190E09093E4058093E305DB
:104790008AE0A0CF802F0E94E10D2091DD053091AD
:1047A000DE05882381F08091E105882349F084EBC0
:1047B0009FEF280F391F3093DE052093DD0563CF6F
:1047C0008CE490E0F6CF1092E4051092E305121607
:1047D000130684F4235331093093DE052093DD055D
:1047E0008091DD059091DE05C2968536910508F031
:1047F00073CFC3CE2115310599F32D5C3F4FECCF1C
:1048000084E00E94E10D882309F49ACF8091E705A6
:1048100084360CF495CF8CE090E09093E40580937F
:10482000E30588E28093E5051092E70580939707FA
:1048300080919B06882319F0815080939B0680917C
:10484000990690919A0620919B0640918B06509173
:104850008C0660918D0670918E06843091050CF067
:10486000BFC521111DC180913E07882309F4D2C024
:10487000815080933E0714C12DE0E216F10409F443
:1048800068CF84E090E09093E4058093E30588E0AE
:104890008093E505CDCF2091E5052111C9CF8C305E
:1048A000910541F485E090E09093E4058093E30561
:1048B00084E1EECF8430910541F485E090E090935F
:1048C000E4058093E3058CE0E3CF8530910519F48E
:1048D00086E090E0E9CF8730910541F488E090E0F0
:1048E0009093E4058093E3058FE0D2CF8830910563
:1048F00041F489E090E09093E4058093E30589E139
:10490000C7CF8D30910519F48EE090E0D8CF8E306E
:10491000910539F48FE090E09093E4058093E305EE
:10492000B7CF8031910541F481E190E09093E405A7
:104930008093E30582E1ACCF8131910519F482E1E6
:1049400090E0B2CF8331910509F05AC084E190E044
:104950009093E4058093E3058FE08093E5058091D3
:104960008807882309F446C08091940721E030E04D
:1049700081115ECF4CE0429FC001439F900D1124F6
:104980008B539A4FFC01ED53FE4F41E0408331962B
:1049900040833B974091D5055091D6056091D7054E
:1049A0007091D805408351836283738383549E4FF3
:1049B0004091D9055091DA056091DB057091DC05D5
:1049C0005C5061097109DC014D935D936D937C939B
:1049D00013978091E105882381F080E09DEF4CE002
:1049E000429FF001439FF00D1124EA57F84F918345
:1049F00080831ECF30E020E0BDCF80E093E0EFCF9A
:104A0000449719F485E190E06BCF1092E405109281
:104A1000E3050ECFC090D505D090D605E090D70520
:104A2000F090D805C41AD50AE60AF70ACD2CDE2C78
:104A3000EF2CFF24E7FCFA94F7FE08C0F094E09412
:104A4000D094C094C11CD11CE11CF11CE0913F0723
:104A5000B8E1EB9FF0011124EB5BFF4E0491B090A5
:104A600099078091E3059091E405AA24A3948330EB
:104A7000910531F08D30910519F0409709F0A12C86
:104A800080913C0790913D078230910509F42EC436
:104A900008F02DC3009709F462C3019709F4A3C37A
:104AA0008091930690919406181619060CF093C401
:104AB00049979093940680939306C090D505D09023
:104AC000D605E090D705F090D80580908B069090A1
:104AD0008C06A0908D06B0908E0681E08C149D040B
:104AE000AE04BF040CF080E08093E10581E08C14FB
:104AF0009D04AE04BF040CF480E08093970680917F
:104B0000DF059091E005C3969093E0058093DF0563
:104B10004091DD055091DE05052E000C660B770BEC
:104B20004C0D5D1D6E1D7F1D4093D5055093D60520
:104B30006093D7057093D805092E000CAA0BBB0B08
:104B4000C090D905D090DA05E090DB05F090DC0547
:104B50008C0D9D1DAE1DBF1D8115E8E79E07A105AB
:104B6000B1050CF0EEC48093D9059093DA05A093BB
:104B7000DB05B093DC058091950690919606C3966F
:104B80009093960680939506C0909306D0909406D5
:104B90000D2C000CEE08FF08C80CD91CEA1CFB1CED
:104BA000C0928B06D0928C06E0928D06F0928E0613
:104BB000092E000CAA0BBB0B80908F0690909006DC
:104BC000A0909106B0909206880D991DAA1DBB1D5C
:104BD0008115E8E79E07A105B1050CF0C5C48093D7
:104BE0008F0690939006A0939106B093920641157C
:104BF00058416C4F7F4F64F480E098E1ACEFBFEF19
:104C00008093D5059093D605A093D705B093D8058A
:104C10008091D5059091D605A091D705B091D80582
:104C20008130984EA340B10564F080E098EEA3E097
:104C3000B0E08093D5059093D605A093D705B093A7
:104C4000D805C11498E1D9069CEFE9069FEFF90653
:104C500064F480E098E1ACEFBFEF80938B06909313
:104C60008C06A0938D06B0938E0680918B06909152
:104C70008C06A0918D06B0918E068130984EA3408F
:104C8000B10564F080E098EEA3E0B0E080938B067D
:104C900090938C06A0938D06B0938E068091E305C9
:104CA0009091E4058530910509F479C48830910527
:104CB00009F473C40AE08E309105B1F10BE0813143
:104CC000910591F18431910509F469C4833191050D
:104CD00009F467C409E08A30910531F105E08230BA
:104CE000910511F18330910509F45BC48D30910574
:104CF00009F457C49C012F5031092230310508F4C2
:104D000050C48231910509F44CC4019709F03FC4A5
:104D10008091500190915101E3E096958795EA9535
:104D2000E1F7082F03700F5F96E0099FB00111248F
:104D30006E53704F46E050E0CE018F579F4F0E9458
:104D4000AC2CE0905001F0905101202FA701BE0142
:104D50006F577F4F85ED95E00E94D31180919906A2
:104D600090919A068530910509F428C48830910500
:104D700009F41EC48E30910509F41CC481319105DB
:104D800009F41AC48431910509F418C483319105DA
:104D900009F41AC48A30910509F412C482309105CD
:104DA00009F410C48330910509F40EC48D309105C7
:104DB00009F40AC49C012F5031092230310508F44E
:104DC00003C48231910509F4FFC3019709F0EBC3D5
:104DD00073E0F694E7947A95E1F71E2D13701F5F48
:104DE000A6E01A9FB00111246E53704F46E050E0C8
:104DF000CE0101960E94AC2C40915001509151017E
:104E0000212FBE016F5F7F4F8BE896E00E94D31188
:104E10008091E3059091E4058530910509F4D6C3AE
:104E20008830910539F08E30910509F4CFC3419750
:104E300009F065C0E5E001EA16E061EDE62E66E006
:104E4000F62EB4E0EB9FF0011124EB53FA4F6F0103
:104E50002FE5C20ED11CE157FF4FD8018C9188235A
:104E600009F4B6C3D6016D917D918D919C91D801C5
:104E7000D9968D909D90AD90BC90DC97681979097A
:104E80008A099B09672F782F892F992787FD9A9583
:104E900080809180A280B380A759BF4F4D905D90D4
:104EA0006D907C9084189508A608B708892C9A2CD8
:104EB000AB2CBB24A7FCBA949B01AC010E94352DFE
:104EC0002B013C01A5019401C501B4010E94352DBF
:104ED000460E571E681E791EB9E14B165104610437
:104EE00071040CF075C341E08091E505803108F450
:104EF00040E06BE876E085ED95E00E94FE0C809145
:104F0000990690919A068530910509F468C3883016
:104F1000910539F08E30910509F461C3419709F08C
:104F20005EC0E5E005EF15E024E0E29FF00111240A
:104F3000EB53FA4F7F013BEEE31A3EEFF30AEB5BD4
:104F4000FE4FD10196968C91882309F44AC3D7016C
:104F50006D917D918D919C91D101A15ABF4F8D9002
:104F60009D90AD90BC901397681979098A099B09A7
:104F7000672F782F892F992787FD9A9580809180B8
:104F8000A280B380D0964D905D906D907C908418F7
:104F90009508A608B708892C9A2CAB2CBB24A7FC33
:104FA000BA949B01AC010E94352D2B013C01A50157
:104FB0009401C501B4010E94352D460E571E681E8E
:104FC000791EB9E14B165104610471040CF009C358
:104FD00040E065ED75E08BE896E00E94FE0CC09025
:104FE000D505D090D605E090D705F090D805409033
:104FF0008B0650908C0660908D0670908E066091A6
:10500000D9057091DA058091DB059091DC0500915E
:105010008F06109190062091910630919206600FB4
:10502000711F821F931F22E030E040E050E00E9499
:10503000D22C49015A018AE0981AA108B108C70187
:10504000B601640D751D861D971D22E030E040E01D
:1050500050E00E94D22C2093CB053093CC05409396
:10506000CD055093CE058092CF059092D005A092A9
:10507000D105B092D205C418D508E608F708CD2CA2
:10508000DE2CEF2CFF24E7FCFA94F7FE08C0F09426
:10509000E094D094C094C11CD11CE11CF11CA70168
:1050A0009601293131054105510524F429E130E00B
:1050B00040E050E060EA7FE080E090E00E94D22C87
:1050C0002C3331050CF495C23093D4052093D305CD
:1050D0008091E605882309F493C280919C06811192
:1050E0005AC980919A078F5F80939A078EC2833046
:1050F000910509F4A7C0049709F0D2CC1092940648
:10510000109293066AE070E080E090E00E94451300
:10511000AA2049F0673038F462E070E080E090E067
:105120000E944513685F023009F00FC1653008F432
:105130000EC184E090E0633050F087E090E066308C
:1051400008F43EC1693008F039C18DE090E09093D9
:105150009A068093990688E080939B0609C10130E6
:1051600049F584E090E0EAE1CE16D104E104F104CF
:1051700014F081E090E090933D0780933C078FE02E
:1051800090E08B199109880F991FAC01092E000C32
:10519000660B770B069714F1CB01BA0165507109C4
:1051A000810991090E944513DC01CB010596A11DDF
:1051B000B11D5FCB023059F482E090E0F6E4CF16E7
:1051C000D104E104F104BCF283E090E0D4CF2EE2FC
:1051D000C216D104E104F104BCF3CBCF85E090E02A
:1051E000A0E0B0E046CB8091930690919406209188
:1051F00097062223D9F024EB3FEF820F931F909361
:105200009406809393068CE1A11001C086E20130E0
:1052100081F43EE1C316D104E104F10454F484E0C6
:1052200090E090933D0780933C073ACC2CE430E02B
:10523000E4CF90E0B0E0A0E0C816D906EA06FB068D
:1052400074F32ECC10929406109293060330C9F496
:1052500083E3C816D104E104F104DCF081E090E0BE
:1052600090933D0780933C076EE170E080E090E012
:105270000E944513665F7F4F8F4F9F4F60933E079D
:105280000FCC023031F495E6C916D104E104F104E3
:105290002CF7AA2059F06AE070E080E090E00E94CC
:1052A00045136330710581059105C4F264E670E031
:1052B00080E090E00E9445132B2D220F220F220F39
:1052C0002C5E822E912CB12CA12C681579058A05B3
:1052D0009B051CF484E090E0C3CFAEE1CA16D10474
:1052E000E104F1040CF682E090E0BACF80919306DD
:1052F00090919406209197062223C9F02CE430E087
:10530000820F931F90939406809393068AE5023050
:1053100009F08CE390E0B0E0A0E08C159D05AE05AF
:10532000BF0544F410923D0710923C07B9CB24EB23
:105330003FEFE6CF6AE070E080E090E00E94451326
:10534000672B682B692B71F3ABCB6111F2CE809187
:105350009D0682330CF4EDCE23E130E030939A06C3
:10536000209399069FE090939B06825380939D061D
:10537000209199073DEF3203C0011124CC96AC0176
:10538000092E000C660B770B459704F1CB01BA018F
:1053900064517109810991090E944513DC01CB0117
:1053A0004496A11DB11D282F013009F426951092B5
:1053B0003D0710923C0720933E0772CB80E190E0BE
:1053C00090939A06809399068AE0C6CE84E190E095
:1053D000A0E0B0E0E8CF009709F46FCB499669CB25
:1053E00021116BCB8430910541F485E090E09093DE
:1053F0009A06809399068CE020C08530910541F48F
:1054000086E090E090939A068093990684E115C017
:105410008730910541F488E090E090939A0680935C
:1054200099068FE00AC08830910551F489E090E038
:1054300090939A068093990689E180939B063DCBD1
:105440008D30910519F48EE090E0D1CF8E3091052A
:1054500039F48FE090E090939A0680939906EDCF0F
:105460008031910541F481E190E090939A06809318
:10547000990682E1E2CF8131910519F482E190E051
:10548000C1CF8331910509F052C084E190E090933F
:105490009A06809399068FE080939B0680918807F7
:1054A000882309F43EC08091940721E030E0811107
:1054B00004CBECE0E29FC001E39F900D11248B53DD
:1054C0009A4FFC01ED53FE4FA1E0A083319610826C
:1054D0003B97408351836283738383549E4F4091F3
:1054E0008F065091900660919106709192065C50E3
:1054F00061097109DC014D935D936D937C93139762
:1055000080919706882381F080E09DEF4CE0429FD8
:10551000F001439FF00D1124EA57F84F91838083E7
:10552000CCCA30E020E0C5CF80E093E0EFCF4497D5
:1055300019F485E190E071CF10929A0610929906C5
:10554000BCCA80E098E7A0E0B0E08093D9059093D2
:10555000DA05A093DB05B093DC051092E00510920C
:10556000DF051092E20507CB80E098E7A0E0B0E00D
:1055700080938F0690939006A0939106B093920625
:1055800010929606109295061092980630CB809154
:10559000E20500E0882309F4C7CB07E0C5CB06E0AD
:1055A000C3CB08E0C1CB80919806882309F418CCBE
:1055B00017E016CC1AE014CC1BE012CC16E010CC8D
:1055C00019E00ECC15E00CCC18E00ACCE3E033CCAB
:1055D0000C5F1F4FE016F10609F03FCC90CCE3E0E2
:1055E000A1CC24E0220E311C0215130509F0A9CC30
:1055F000F6CC8CE390E09093D4058093D30568CDEE
:1056000080919B078F5F80939B0785E090E090934C
:10561000CA058093C90588E790E090939D07809321
:105620009C070C94CB210E948A168DE290E0909307
:105630004F0180934E0189E190E090934D0180935A
:105640004C018091E605811111C08EE090E10E942D
:10565000BC0F80919C0790919D07009751F0019796
:1056600090939D0780939C070C9443208AE090E1DF
:10567000EECF80919A07823078F0809199078F5F02
:105680008093990710929A0710929B078A3010F026
:105690000C9466210C94372180919B07823020F076
:1056A00087E090E00C94D12000E020E03EE140E073
:1056B00050E06091890685ED95E00E94861901E031
:1056C00020E034E640E050E060913F078BE896E050
:1056D0000E94861910928807109294070C94C12199
:1056E0006091980798E1699FB0011124615D7F4E38
:1056F00048E150E0CE018F579F4F0E94AC2C05E04F
:1057000010E010934F0100934E0110934D01009350
:105710004C01CE018F579F4F0E94361321E046E780
:105720006EE070E085E090E00E94B20CE091980796
:10573000F0E0EE0FFF1FE55EFF4E65917491CE0124
:1057400001960E94B52C10934F0100934E0184E105
:1057500090E090934D0180934C01CE0101960E9400
:10576000361383E290E090934F0180934E0187E3DC
:1057700090E090934D0180934C0180915001909165
:1057800051016EE170E00E945F2D60FF04C083E173
:1057900090E10E94BC0F88E00E94F30C811180CF41
:1057A0000C9443208EE190E090934F0180934E0142
:1057B00089E190E090934D0180934C01809199078D
:1057C0008A3089F489E291E10E94BC0F88E00E944E
:1057D000F30C882311F40C9443201092CA05109204
:1057E000C9050C9443208FE191E1EECF83E190E075
:1057F0009093E4058093E3058FE08093E5053253B1
:105800003093E70515C845130C942D230C946C2296
:105810008F929F92AF92BF92CF92DF92EF92FF92C0
:10582000CF93DF93EC01688179818A819B81611537
:1058300071058105910521F464E279ED8BE597E02E
:105840002DE133EF41E050E00E94D22C49015A0192
:105850009B01AC01A7EAB1E40E94F12C6B017C0131
:10586000ACEEB4EFA50194010E94FF2CC60ED71E2A
:10587000E81EF91EF7FE06C081E0C81AD108E1084B
:1058800080E8F80AC882D982EA82FB82C701B601A1
:105890009F77DF91CF91FF90EF90DF90CF90BF90F7
:1058A000AF909F908F9008958F929F92AF92BF92EA
:1058B000CF92DF92EF92FF9260910D0170910E01F5
:1058C00080910F019091100161157105810591057D
:1058D00021F464E279ED8BE597E02DE133EF41E0CF
:1058E00050E00E94D22C49015A019B01AC01A7EA69
:1058F000B1E40E94F12C6B017C01ACEEB4EFA50188
:1059000094010E94FF2CC60ED71EE81EF91EF7FE5A
:1059100006C081E0C81AD108E10880E8F80AC09200
:105920000D01D0920E01E0920F01F0921001C7011B
:10593000B6019F77FF90EF90DF90CF90BF90AF9030
:105940009F908F90089560930D0170930E01809346
:105950000F01909310010895FB01DC0102C0059036
:105960000D9241505040D8F70895FB01DC0105909D
:105970000D920020E1F70895F999FECF92BD81BD07
:10598000F89A992780B50895262FF999FECF1FBA66
:1059900092BD81BD20BD0FB6F894FA9AF99A0FBE58
:1059A00001960895052E97FB1EF400940E94E92CA1
:1059B00057FD07D00E94042D07FC03D04EF40C9431
:1059C000E92C50954095309521953F4F4F4F5F4FB3
:1059D000089590958095709561957F4F8F4F9F4F5B
:1059E00008950E94262DA59F900DB49F900DA49F11
:1059F000800D911D11240895B7FF0C94F12C0E9485
:105A0000F12C821B930B0895A1E21A2EAA1BBB1B3B
:105A1000FD010DC0AA1FBB1FEE1FFF1FA217B3077A
:105A2000E407F50720F0A21BB30BE40BF50B661F90
:105A3000771F881F991F1A9469F760957095809554
:105A400090959B01AC01BD01CF010895A29FB001CB
:105A5000B39FC001A39F700D811D1124911DB29FA2
:105A6000700D811D1124911D0895DB018F939F936B
:105A70000E94F12CBF91AF91A29F800D911DA39F19
:105A8000900DB29F900D11240895991B79E004C0E8
:105A9000991F961708F0961B881F7A95C9F780956D
:105AA000089587FB082E062687FD819567FD619581
:105AB0000E94452D0EF4919507FC81950895AA1B2F
:105AC000BB1B51E107C0AA1FBB1FA617B70710F0E9
:105AD000A61BB70B881F991F5A95A9F7809590951B
