:100000000C942D060C9455060C9455060C9455062C
:100010000C9455060C9455060C9455060C945506F4
:100020000C9455060C9455060C94D7160C94461750
:100030000C9455060C9455060C9455060C945506D4
:100040000C9455060C9455060C9455060C945506C4
:100050000C9455060C9455060C9455060C9478197E
:100060000C9455060C9455060C9455060C945506A4
:100070000C9455060C9455060C9455060C94550694
:100080000C9455060C9455060C9455060C94550684
:100090000C9455060C9455060C9455060C94550674
:1000A0000C9455060C9455060C9455060000060059
:1000B0000C00120019001F0025002B003100380031
:1000C0003E0044004A00500056005C00610067009A
:1000D0006D00720078007D00820087008C00900027
:1000E000950099009D00A100A500A900AD00B000F9
:1000F000B300B600B900BC00BF00C100C300C5001A
:10010000C700C800CA00CB00CC00CD00CE00CE0096
:10011000CF00CF00CF00CF00CF00CF00CE00CE0069
:10012000CD00CC00CB00CA00C800C700C2BE51231E
:100130004B29C6BE19642855C2BE40404040BEBED1
:1001400064195528C2BE40404040C0C0EA26622E15
:10015000DCB758FC4022C0D2502A54F2C0023638D4
:100160004A34ACA8161E2E1EC0023E024030C00209
:100170004A3638FF00000000003E5B4F5B3E3E6B9E
:100180004F6B3E1C3E7C3E1C183C7E3C181C577D31
:10019000571C1C5E7F5E1C00183C1800FFE7C3E77D
:1001A000FF0018241800FFE7DBE7FF30483A060E8F
:1001B0002629792926407F050507407F05253F5AD6
:1001C0003CE73C5A7F3E1C1C08081C1C3E7F142246
:1001D0007F22145F5F005F5F06097F017F006689F1
:1001E000956A606060606094A2FFA29408047E0437
:1001F0000810207E201008082A1C08081C2A08085D
:100200001E101010100C1E0C1E0C30383E3830061C
:100210000E3E0E06000000000000005F0000000718
:10022000000700147F147F14242A7F2A1223130846
:10023000646236495620500008070300001C224122
:10024000000041221C002A1C7F1C2A08083E0808C6
:100250000080703000080808080800006060002076
:10026000100804023E5149453E00427F4000724959
:100270004949462141494D331814127F10274545FD
:1002800045393C4A49493141211109073649494913
:1002900036464949291E0000140000004034000081
:1002A00000081422411414141414004122140802EA
:1002B000015909063E415D594E7C1211127C7F495D
:1002C0004949363E414141227F4141413E7F4949B2
:1002D00049417F090909013E414151737F080808DE
:1002E0007F00417F41002040413F017F08142241AF
:1002F0007F404040407F021C027F7F0408107F3E09
:100300004141413E7F090909063E4151215E7F0975
:10031000192946264949493203017F01033F4040DC
:10032000403F1F2040201F3F4038403F63140814C7
:100330006303047804036159494D43007F414141FF
:100340000204081020004141417F040201020440E0
:1003500040404040000307080020545478407F2864
:100360004444383844444428384444287F3854545A
:10037000541800087E090218A4A49C787F0804047D
:100380007800447D40002040403D007F102844001C
:1003900000417F40007C047804787C0804047838AD
:1003A00044444438FC1824241818242418FC7C08DD
:1003B000040408485454542404043F44243C40405A
:1003C000207C1C2040201C3C4030403C442810280D
:1003D000444C9090907C4464544C44000836410056
:1003E0000000770000004136080002010204023CD0
:1003F0002623263C1EA1A161123A4040207A38549F
:100400005455592155557941215454784121555419
:10041000784020545579400C1E527212395555556A
:1004200059395454545939555454580000457C4155
:100430000002457D420001457C40F0292429F0F06E
:10044000282528F07C545545002054547C547C0ABF
:10045000097F4932494949323248484832324A488C
:1004600048303A4141217A3A42402078009DA0A08C
:100470007D39444444393D4040403D3C24FF2424E0
:10048000487E4943662B2FFC2F2BFF0929F620C0FD
:10049000887E090320545479410000447D4130484E
:1004A000484A32384040227A007A0A0A727D0D1991
:1004B000317D2629292F28262929292630484D40F3
:1004C00020380808080808080808382F10C8ACBAEF
:1004D0002F102834FA00007B000008142A1422226E
:1004E000142A14089500220095AA005500AAAA55BE
:1004F000AA55AA000000FF00101010FF00141414E9
:10050000FF001010FF00FF1010F010F0141414FC86
:10051000001414F700FF0000FF00FF1414F404FCA3
:10052000141417101F10101F101F1414141F001084
:100530001010F0000000001F101010101F101010FD
:1005400010F010000000FF1010101010101010100C
:10055000FF10000000FF140000FF00FF00001F104C
:10056000170000FC04F414141710171414F404F406
:100570000000FF00F714141414141414F700F714F7
:100580001414171410101F101F141414F414101046
:10059000F010F000001F101F0000001F14000000EA
:1005A000FC140000F010F01010FF10FF141414FFE2
:1005B000141010101F00000000F010FFFFFFFFFFDD
:1005C000F0F0F0F0F0FFFFFF0000000000FFFF0F71
:1005D0000F0F0F0F38444438447C2A2A3E147E0201
:1005E000020606027E027E02635549416338444496
:1005F0003C04407E201E2006027E020299A5E7A54B
:10060000991C2A492A1C4C7201724C304A4D4D30BB
:100610003048784830BC625A463D3E494949007EE0
:100620000101017E2A2A2A2A2A44445F4444405177
:100630004A444040444A51400000FF0103E080FF2B
:10064000000008086B6B083612362436060F090FB7
:1006500006000018180000001010003040FF0101D3
:10066000001F01011E00191D1712003C3C3C3C00FC
:1006700000000000F0F89C8E8783878E9CF8F000C5
:1006800000FEFF0303030303070EFCF80000FEFF58
:100690000303030303070EFCF80000FFFF00000044
:1006A00000000000FFFF0000FEFF8383838383C7F9
:1006B000EE7C380000F8FC0E07030303070EFCF87D
:1006C00000003F7FE0C08080C0E07F3FFFFF01016E
:1006D0000101010101FFFF0000FFFF0C0C0C0C1CCD
:1006E0003E77E3C100007FFFC0C0C0C0C0E0703FE4
:1006F0001F00001F3F70E0C0C0C0E0703F1F00003F
:100700007FFFC1C1C1C1C1E3773E1C00001F3F7024
:10071000E0C0C0C0E0703F1F000000000001FFFF0C
:1007200001000000D5F08D14A1C881CFD9F1AF2010
:100730000000000000000000F8FCFEFFFFFFFFFECD
:10074000FCF80000000000000000000000000000B5
:1007500000000000000080E060B19BDB6B73730F52
:100760000D0C0C0C0C0C0C1C1C1C000000000000E0
:10077000000000000000030381E1781E1F3060606C
:10078000C080000000000000000000000000000029
:1007900000C0E0E030180C0603000000000000007C
:1007A000000107FCC0800000000000000000000005
:1007B000003E20008020000000000000000000003B
:1007C0000000000000000000000000000000E01039
:1007D0000804E2E1F1F1F9F93939393939393939AE
:1007E000393901013939393939F9F9F9F9F9F93969
:1007F00039393939018181F9F9F9F979010F04E3BE
:10080000F1F1F9793939393939F9F9F9F161010138
:1008100001F9F9F9F9198181CFE4E3F9F979391985
:100820001981C1211F00000000000000000000002D
:100830000000000000000000000080808040404078
:1008400040404040404040404060100C0602637011
:1008500070707173737373737373737F7F7F3F1FD4
:100860000E000000000000007C7F7F7F7F01010000
:1008700000000000787F7F7F7F7F0700103F3F7F71
:100880007F7F7370707070707C7C7C3C1C00007F7C
:100890007F7F7F7F7F03071F1F3F7F7F7860600020
:1008A000070D1060404040404040404040404040C4
:1008B000C0C0800000000000E01C030300C0F8FE80
:1008C000FEFEDEDEDEDEDEDEDE1E1E1E1E1E00E0A4
:1008D000FEFEFEFEFE1E00E0F8FCFEFE1E1E1E1EBC
:1008E000DEDEDEDEDEDEDE1E00C0FEFEFEFEFEFE24
:1008F000E0E0E0E0E0FEFEFEFEFE1E00001E1E1E2A
:100900001E1EFEFEFEFEFEFE1E1E1E1E1E00C0FC65
:10091000FCFEFEFEDEDEDEDEDEDEDE1E1E1E1E0057
:1009200000C0FEFEFEFEDEDEDEDEDEDEFEFEFEFCE5
:100930007878010102FE00FE818080808E8F8F8F8B
:100940008F8781C1C139090909F8808080808E8F25
:100950008F8F8F818080C68F8F8F8F8F8E8E8E8EA0
:100960008E8F8F8FCFCF8F80808F8F8F8F8F8F8045
:10097000808080808F8F8F8F8F8F8080F0808080AD
:10098000808F8F8F8F8F8F8080F01E3020408F8FD1
:100990008F8F8F8F8E8E8E8E8E8E8E8E8E8E80808F
:1009A000808F8F8F8F8F81818181818F8F8F8F88B3
:1009B00080808082FF0153454C4543542048455276
:1009C0004F005A454E49544800000C060A0A0C0CC8
:1009D0004C0100010002000143494E444552000011
:1009E0000B0508080A0AE601020302010102474F4B
:1009F0004C49415448000F080C0C0E0EE600010053
:100A000001020201564F4C54000000000C060E0E6D
:100A10000C0C33010004030001004B41474500006A
:100A200000000C0609090B0B9901020102010002EA
:100A3000534952454E0000000B060A0A0C0C4C01AB
:100A400000020001010044524946540000000C0617
:100A50000A0A0C0C19010204030200015455534BFD
:100A6000000000000D070B0B0D0D0001010102023B
:100A700002024A414445000000000B0609090B0B25
:100A800080010002010101014543484F00000000C0
:100A90000C060A0A0C0C4C01020000000000202089
:100AA000003E20004C414444455200C2BE51234BFD
:100AB00029C6BE19642855C2BE40404040BEBE642F
:100AC000195528C2BE40404040C0C0EA26622EDC14
:100AD000B758FC4022C0D2502A54F2C00236384ADD
:100AE00034ACA8161E2E1EC0023E024030C0024A80
:100AF0003638FF57494E004B2E4F2E0047414D458B
:100B0000204F56455200594F552057494E21000855
:100B10000B000202020000090400000102020000B2
:100B20000524001001052401010104240206052406
:100B30000600010705810310004009040100020AB4
:100B40000000000705020240000007058302400084
:100B5000000403090412010002EF020140412336A0
:100B60008000010102030141726475696E6F204CBF
:100B70004C430041726475626F79005A454E495486
:100B80004800000C060A0A0C0C4C0100010002008F
:100B90000143494E44455200000B0508080A0AE685
:100BA00001020302010102474F4C49415448000F22
:100BB000080C0C0E0EE600010001020201564F4C1B
:100BC00054000000000C060E0E0C0C330100040350
:100BD0000001004B414745000000000C0609090BCD
:100BE0000B9901020102010002534952454E0000D7
:100BF000000B060A0A0C0C4C010002000101004423
:100C0000524946540000000C060A0A0C0C19010255
:100C100004030200015455534B000000000D070B64
:100C20000B0D0D00010101020202024A4144450080
:100C30000000000B0609090B0B80010002010101F5
:100C4000014543484F000000000C060A0A0C0C4CFA
:100C50000102000000000000F51911241FBECFEFB3
:100C6000DAE0DEBFCDBF11E0A0E0B1E0E2EFF1E5F8
:100C700002C005900D92AA34B107D9F727E0AAE483
:100C8000B1E001C01D92AF39B207E1F716E0CDE245
:100C9000D6E004C02197FE010E94F128CC32D10792
:100CA000C9F70E942F1A0C94F7280C9400004F9259
:100CB0005F926F927F928F929F92AF92BF92CF92EC
:100CC000DF92EF92FF920F931F93CF93DF93FB017D
:100CD000E00FF11D1E161F060CF08AC0603471056E
:100CE0000CF086C0DB0177FF04C0AA27BB27A61B38
:100CF000B70BA770BB27EB0177FD2796E3E0D595EF
:100D0000C795EA95E1F777FF07C0219768E070E0A3
:100D1000FB01EA1BFB0BDF0130E00695069506950B
:100D2000802E912C8A01AE015695542F4427579559
:100D30004795480F591F4B585E4FBE01E0E8F0E061
:100D40007F01E81AF90A88E090E03C016A1A7B0A00
:100D50006F3FFFEF7F070CF43BC090E080E05A014B
:100D6000E0E8AE0EB11C6F3F760709F452C0FC01FB
:100D7000E00FF11FE4916A01C80ED91EF0E02F01C7
:100D80000A2E01C0440C0A94EAF7F6015080452867
:100D900040821097B1F06730710599F0F801E80FC3
:100DA000F91FE4916501C80ED91EF0E02F01062C51
:100DB00002C0559447940A94E2F7F6015080452802
:100DC00040820196821793071CF4E816F90659F63B
:100DD0006F5F7F4F020F131F40585F4FCB018C1B7B
:100DE0009D0B8815990524F46830710509F0B0CF82
:100DF000DF91CF911F910F91FF90EF90DF90CF90F7
:100E0000BF90AF909F908F907F906F905F904F902A
:100E10000895109709F0C2CFD4CFE5E7F1E0A0E044
:100E2000B8E000800EBC8111012C1197A0FDFDCF10
:100E30000192B9F70DB40895FC01809172018823E5
:100E400011F13FB7F89482E08093E9002091F2001D
:100E5000822F90E01816190614F481E090E08823A0
:100E600039F0289844E6409371014091F1004083A5
:100E7000222339F02091F200211103C02BE62093A8
:100E8000E8003FBF08958FEF9FEF08952FB7F894C4
:100E900083E08093E9009091E800892F807295FFAC
:100EA00004C09091F20080E4891B2FBF08958091C7
:100EB000690181110DC082E08093650184E0809317
:100EC0006601109268011092670181E080936901C8
:100ED00085E691E00895CF93DF931F92CDB7DEB7FB
:100EE0006983DC01ED91FC910280F381E02D41E00A
:100EF00050E0BE016F5F7F4F09950F90DF91CF915A
:100F0000089583E08093E9008091F200882319F02E
:100F10008AE38093E80008950E94460790E00895D0
:100F2000CF93DF931F92CDB7DEB7FC018485958503
:100F300097FD08C02FEF3FEF358724870F90DF9193
:100F4000CF910895CE0101960E941C07019719F4D4
:100F5000898190E0F3CF8FEF9FEFF0CF0F931F9336
:100F6000CF93DF931F92CDB7DEB78C01FC01848550
:100F7000958597FF0BC0CE0101960E941C07019733
:100F800071F4898190E0F80195878487F801848560
:100F900095850F90DF91CF911F910F9108958FEF5D
:100FA0009FEFF1CFFC018485958597FD0BC09FB71E
:100FB000F89482E08093E9008091F2009FBF90E076
:100FC000019608959FB7F89482E08093E90080919C
:100FD000F2009FBF90E0089540915F015091600141
:100FE00020915D0130915E0142175307B4F4909156
:100FF000E8009570E1F39091E80092FD19C08093AC
:10100000F10080915F019091600101968F739927A3
:10101000892B19F48EEF8093E80080915F01909105
:10102000600101969093600180935F0181E00895D3
:1010300080E00895DF92EF92FF920F931F93CF937A
:10104000DF93D82E8A01EB017B01E40EF51ECE154D
:10105000DF0559F0D7FE12C0FE0184910E94EC0713
:1010600021968111F4CF0FEF1FEFC801DF91CF91CF
:101070001F910F91FF90EF90DF9008958881EECF40
:101080000F931F93CF93DF931F92CDB7DEB782E00C
:10109000898342E450E06FE07BE080E80E941A0818
:1010A0000E945707DC0112960D911C910115110544
:1010B00089F0D801ED91FC910280F381E02DBE0111
:1010C0006F5F7F4FC801099597FD04C0F801008547
:1010D0001185ECCF89810F90DF91CF911F910F91F6
:1010E0000895615030F02091F100FC0120830196B9
:1010F000F8CF289884E68093710108953FB7F8945B
:101100008091590190915A01A0915B01B0915C01CD
:1011100026B5A89B05C02F3F19F00196A11DB11D52
:101120003FBFBA2FA92F982F8827BC01CD01620F8E
:10113000711D811D911D42E0660F771F881F991F49
:101140004A95D1F708958F929F92AF92BF92CF9216
:10115000DF92EF92FF926B017C010E947E084B01AF
:101160005C01C114D104E104F104B9F00E947E08CD
:10117000681979098A099B09683E734081059105C0
:1011800080F321E0C21AD108E108F10888EE880E48
:1011900083E0981EA11CB11CE4CFFF90EF90DF907C
:1011A000CF90BF90AF909F908F9008958F929F9215
:1011B000AF92BF92CF92DF92EF92FF920F931F9365
:1011C000CF93DF936C017B018A0180910C0188230E
:1011D00009F45CC080917201882309F457C08091A2
:1011E000640180FF05C08091E00082608093E00090
:1011F000E801B12C8AEFA82E93E0892E2AE3922EE3
:10120000209711F4BB20D9F10E94460781110AC032
:10121000AA94AA20D9F161E070E080E090E00E94F9
:10122000A308EECF8C171D0611F00CF08C2F9FB782
:10123000F8948092E9002091E80025FD02C09FBF4C
:10124000DFCF282F30E0C21BD30BF701815020F0F5
:1012500041914093F100FACFE20EF31EBB2021F042
:101260009092E800B12CEBCF8091E80085FDE7CFAC
:101270009092E800BB24B394209709F3F3CF5D98D4
:1012800084E680936301101611063CF081E090E043
:10129000F6019383828310E000E0C801DF91CF91D3
:1012A0001F910F91FF90EF90DF90CF90BF90AF9084
:1012B0009F908F900895AF92BF92CF92DF92EF925E
:1012C000FF920F931F93CF93DF936C017B018B01F0
:1012D000040F151FEB015E01AE18BF08C017D10740
:1012E00059F06991D601ED91FC910190F081E02DCA
:1012F000C6010995892B79F7C501DF91CF911F911F
:101300000F91FF90EF90DF90CF90BF90AF90089536
:101310002D9A0895BC0190E080E00C94A3088FB151
:101320008095807F669B88601C9B84600895480F31
:10133000592F511D14161506D4F580389105BCF5AA
:1013400097FF02C090E080E04138510514F040E87A
:1013500050E0481BFB0177FD379633E0F595E795A4
:101360003A95E1F7F695FE2FEE27F795E795E80F0A
:10137000F91FEB58FE4F6770772781E090E001C0BE
:10138000880F6A95EAF7382F213041F4415078F000
:101390008191DF011197832B8C93F8CF8095415079
:1013A00030F09191DF01119798239C93F8CF089525
:1013B00090914A01982329F490914B01982381E060
:1013C00009F480E00895CF93C82F0E948F09982FC9
:1013D0009C2381E09C1380E0CF9108958F929F928F
:1013E000AF92BF92FF920F931F93CF93DF938C0125
:1013F000EB01F42E84E1411101C088E0809396074F
:101400008FE0F11001C085E0809397078C858823D9
:10141000F1F080E20E94E3098823D9F088898830BE
:10142000C0F41F861E868A89875E8A8B8BE090E0D7
:10143000F8019787868788E2808BDF91CF911F9193
:101440000F91FF90BF90AF909F908F90089580E490
:10145000E1CF89E120E035E0F11015C0F801868583
:1014600097858530910509F44FC08E30910509F4B8
:101470004BC08830910509F449C0419709F446C032
:101480008AE020E033E0F80180809180A280B38080
:10149000488159816A817B8184169506A606B70624
:1014A000BCF53987288735952795319521953109E0
:1014B0003187208739892A894E855F8542305105D9
:1014C00081F565E00E94AC28381B398B88859985A9
:1014D00097FD019695958795998788872E5F2A8B2A
:1014E000F80182898B5F828B898987FD198A8A89B5
:1014F000853614F084E68A8BF801828985360CF4EF
:101500009CCF84E6828B99CF88E0BBCF8CE0B9CFAB
:1015100044275527421B530B5987488735952795F4
:10152000C7CF381B398B8AE090E09F878E878EE18A
:10153000F11001C08FE0888B2B5F2A8BF801828924
:10154000865FD1CF80E00C940D0780389105B8F408
:1015500060347105A0F420E191E061FD94E060FD4C
:10156000990F62FD9295687F269FD0011124A80FE4
:10157000AB58BE4F8C9140FF03C0892B8C930895CC
:1015800090958923FBCF2F923F924F925F926F925B
:101590007F928F929F92AF92BF92CF92DF92EF9203
:1015A000FF920F931F93CF93DF93EC018B017A018E
:1015B0006901C61AD70AD7FE03C0D194C194D108D5
:1015C00047018C1A9D0A97FE03C09194819491085B
:1015D0008C149D0454F49E2D8F2D7901292F382FC2
:1015E0009C2F8D2FE801092F182FEC16FD0654F4BF
:1015F000902F812F8901292F382F9C2F8D2FE701C4
:10160000E92EF82E17012C1A3D0A2901401A510A19
:1016100057FE03C0519441945108310137FE03C075
:101620008FEF681A780A759467948FEF0217130783
:101630000CF481E0A82E880FBB08EC16FD06A4F080
:1016400041E0BE01C8018C149D0414F0B801CE0124
:101650000E94A50A6418750877FE04C00A0D1B1DB8
:10166000620C731C2196E9CFDF91CF911F910F91EE
:10167000FF90EF90DF90CF90BF90AF909F908F90B2
:101680007F906F905F904F903F902F9008952F9292
:101690003F924F925F926F927F928F929F92AF9202
:1016A000BF92CF92DF92EF92FF920F931F93CF934F
:1016B000DF9300D000D0CDB7DEB77C018B01242FA3
:1016C00030E03C832B8381E090E05C01A21AB30AF6
:1016D0001901319421943108220C331CB901600F97
:1016E000711F41E0C7010E94A50AB8018B819C814E
:1016F000681B790B41E0C7010E94A50A41E0B801CF
:101700008B819C818E0D9F1D0E94A50A41E0B8012E
:10171000C7012B813C81821B930B0E94A50AD12C0F
:10172000C12C81E090E09A8389832B813C81C21691
:10173000D3060CF05DC0B7FC09C0215031093C83D1
:101740002B8332E0230E311CA20CB31C8FEFC81A7E
:10175000D80A29813A812E5F3F4F3A832983A20E0E
:10176000B31E37016C0C7D1C41E08B809C80800E89
:10177000911EB401C3010E94A50A27014C185D08FF
:1017800041E0B401C2010E94A50A41E048018B81F9
:101790009C81881A990AB401C3010E94A50A41E0FC
:1017A000B401C2010E94A50A4601800E911E41E0CB
:1017B000B4016B807C806E0C7F1CC3010E94A50A63
:1017C00041E0B40127012B813C81421A530AC20136
:1017D0000E94A50A48018C189D0841E0B401C3018C
:1017E0000E94A50A41E0B401C2010E94A50A9DCF52
:1017F0000F900F900F900F90DF91CF911F910F914D
:10180000FF90EF90DF90CF90BF90AF909F908F9020
:101810007F906F905F904F903F902F9008958F92A0
:101820009F92AF92BF92CF92DF92EF92FF920F936F
:101830001F93CF93DF936D3089F0C0904C01D0900F
:101840004D016A30D1F410924F0110924E0188E0A0
:10185000C80ED11CD0924D01C0924C0181E090E0A5
:10186000DF91CF911F910F91FF90EF90DF90CF907C
:10187000BF90AF909F908F90089500914E0110916E
:101880004F01E5E06E9FE0011124CC58DE4F480186
:10189000F12CF5E0E12CFF1629F0CE010196FE01B6
:1018A000E490EC01B12CA12C4E2D4170B6016A0DD3
:1018B0007B1DC4010E94A50AE694FFEFAF1ABF0A80
:1018C00088E0A816B10481F7F394EFEF8E1A9E0A10
:1018D000F6E0FF12DECF0A5F1F4F10934F01009317
:1018E0004E01BCCF0F931F93CF93DF938C01D0E0B9
:1018F000C0E0F801EC0FFD1F6491662341F085EC18
:1019000095E00E940F0C892B11F02196F2CFCE01A9
:10191000DF91CF911F910F910895DF92EF92FF9287
:101920000F931F93CF93DF937C01D22E8B01040F73
:10193000111DEB0177FF02C0D0E0C0E0C801013407
:10194000110514F080E490E0C817D9073CF44D2D40
:10195000BE01C7010E94A50A2196F0CFDF91CF9169
:101960001F910F91FF90EF90DF900895DF92EF921B
:10197000FF920F931F93CF93DF937B01D22EEC0145
:101980008C01040F111DC017D10744F421E04D2D27
:10199000B701CE010E948D0C2196F5CFDF91CF913A
:1019A0001F910F91FF90EF90DF900895CF92DF92FB
:1019B000EF92FF920F931F93CF93DF93EC0121E0FF
:1019C00045E068E070E00E948D0C7E018FEFE81A20
:1019D000F80A21E045E068E070E0C7010E948D0C44
:1019E0006E0182E0C80ED11C21E043E069E070E0A6
:1019F000C6010E948D0C8E010150110921E045E0C5
:101A000068E070E0C8010E948D0C229721E043E05D
:101A100069E070E0CE010E948D0C21E043E069E0B6
:101A200070E0C6010E948D0C21E045E068E070E0A6
:101A3000C7010E948D0C21E043E069E070E0CE0117
:101A40000E948D0C21E045E068E070E0C801DF9164
:101A5000CF911F910F91FF90EF90DF90CF900C945A
:101A60008D0CCF92DF92EF92FF920F93CF93DF9383
:101A70006C017B01C42FD22F6034710520F4202F1C
:101A8000C6010E949709B7016D0F711D6150710960
:101A90006034710528F4202F4C2FC6010E9497094D
:101AA000202F4D2FB701C6010E948D0CC6018C0F4F
:101AB000911D202F4D2FB7010197DF91CF910F91ED
:101AC000FF90EF90DF90CF900C948D0C5F926F920F
:101AD0007F928F929F92AF92BF92CF92DF92EF92BE
:101AE000FF920F931F93CF93DF937C016B015A01F9
:101AF000522EC1E0093711050CF4C0E0F5018081D8
:101B000044E08823C1F143E08130A9F54C2F440F14
:101B1000495F8C2F90E00396B601681B790B01E0BA
:101B2000242FF701E81BF90BCF010E94310DF501BD
:101B30008181813031F5D0E00DEF1FEF0C1B1D0BC3
:101B4000CE01880F991F3601F5E06F1A7108681AE7
:101B5000790A239646018C1A9D0AC017D10754F1C1
:101B6000C8018E0D9F1D9301AC01B4010E94C30AF0
:101B70000E5F1F4FF2CF4C0FB601C7010E94470BFB
:101B8000D6CF823009F051C08C2F90E09C012E5F9F
:101B90003F4FB601621B730B6034710558F44C2F34
:101BA000440F495F039621E0F701E81BF90BCF01D1
:101BB0000E949709CFEF511001C0C1E0F501828169
:101BC00081114EC0CC0FDD0B41E08601015011099F
:101BD000B801C7018C1B9D0B0E94A50A41E0B8010A
:101BE000C7018C0F9D1F0E94A50AF50184818111F8
:101BF00051C0B6016E5F7F4F6034710508F04AC076
:101C000021E043E0C7010197DF91CF911F910F9130
:101C1000FF90EF90DF90CF90BF90AF909F908F900C
:101C20007F906F905F900C949709843019F686E04E
:101C3000982E9C0ED0E0249621E0492D860102507A
:101C40001109B801C7018C1B9D0B0E948D0C21E06E
:101C5000492DB801C7018C0F9D1F0E948D0CAACF82
:101C6000823019F6E60121979E01A70141505109E2
:101C7000860102501109B801C70102970E94C30AE8
:101C80009801A7014E5F5F4FBE01C70101960E94F8
:101C9000C30AABCFDF91CF911F910F91FF90EF90CF
:101CA000DF90CF90BF90AF909F908F907F906F907C
:101CB0005F900895089590E080E00895E82FEF7315
:101CC0008295869586958370F0E039F4EE0FFF1FBC
:101CD000E455FF4F859194910895813039F48FE355
:101CE00090E09C012E1B3F0BF901F0CF823051F4A4
:101CF000EE0FFF1FE455FF4F8591949191958195CB
:101D0000910908958FE390E09C012E1B3F0BF90190
:101D1000EFCF2F923F924F925F926F927F928F926E
:101D20009F92AF92BF92CF92DF92EF92FF920F936A
:101D30001F93CF93DF93CDB7DEB72D970FB6F894EF
:101D4000DEBF0FBECDBF8C017B015E834D832A8336
:101D5000FC01EB54FF4F80818C5F80830E945E0EFC
:101D600046E0959587954A95E1F7D80194964C9170
:101D700050E070E060E0AA24B42EC52ED62EAF82CB
:101D8000B886C986DA868983B82EBB0CBB82282F19
:101D900087FF02C021E0280F25952C83AD80BE80EF
:101DA000B694A794B694A7949501237033273E83E5
:101DB0002D83580133E1A30EB11C180183E4280ED2
:101DC000311C47011C869A8191509B87D501119641
:101DD0008C91811128C0CC84C110ABC0D4015C911E
:101DE000CA80C11011C0DC84D11002C0C9805C0D52
:101DF0008C858250823010F4DB805D198C85845094
:101E0000823010F4CC805C0DD1014C91E52FE41BA5
:101E1000FF0BCF019F012F5F3F4F2330310508F0AB
:101E2000A1C05C9303C02C852630C0F2F101C190A3
:101E30001F01CD86D8011C962C91222321F080E829
:101E4000D82EDC18DD86D5018C918F3F09F0A7C014
:101E5000F801C080D180E280F380448055806680A4
:101E600077808F819885A985BA85481A590A6A0AA8
:101E70007B0A868597858330910519F00D97069723
:101E800020F494E0590E611C711CAB85A43040F421
:101E9000ED81FE81EF2B21F4F1E05F1A61087108FA
:101EA0003C85343009F068C080E09EEFAFEFBFEFB3
:101EB000222321F080E092E0A0E0B0E0C80ED91E1D
:101EC000EA1EFB1E8D85805C0E945E0ED501119678
:101ED0002C9130E0DC010E94EA286627C60ED71E4E
:101EE000E81EF91EF501C4AED5AEE6AEF7AE8D859F
:101EF0000E945E0EF501E459FF4FD50111962C9119
:101F000030E0DC010E94EA286627460E571E681E54
:101F1000791E4082518262827382BC85BF5FBC871A
:101F2000E4E0AE0EB11CFFEF8F1A9F0ABC3009F03F
:101F30004DCF2D960FB6F894DEBF0FBECDBFDF910B
:101F4000CF911F910F91FF90EF90DF90CF90BF90B6
:101F5000AF909F908F907F906F905F904F903F9049
:101F60002F900895F7FD03969595879595958795FC
:101F7000840FD1018C935ACF8C85853009F0A2CF84
:101F800080E092E0A0E0B0E0211104C080E09EEF8C
:101F9000AFEFBFEFC81AD90AEA0AFB0A93CFA4E051
:101FA0008A02C0011124800F911FFC01E15BFF4FE9
:101FB000C080D180E280F38081589F4FFC01408037
:101FC000518062807380FC85F23009F46DCF3C85CE
:101FD000333009F077CFD4CFFC0101900020E9F72E
:101FE0003197AF01481B590BBC0185EC95E00C946F
:101FF0005B090C941728CF92DF92EF92FF926B014E
:102000007C01C114D104E104F10441F00E94B6271F
:10201000A70196010E942D286B017C01C701B60122
:10202000FF90EF90DF90CF9008952F923F924F92C4
:102030005F926F927F928F929F92AF92BF92CF9258
:10204000DF92EF92FF920F931F93CF93DF93CDB761
:10205000DEB764970FB6F894DEBF0FBECDBF6987B9
:102060007A878B879C872D873E874F87588BE98A95
:10207000FA8A0B8B1C8B4090D3055090D405052C0D
:10208000000C66087708882009F4C6C065E070E097
:1020900080E090E00E94FB0F625071098109910974
:1020A0004B0165E070E080E090E00E94FB0F625021
:1020B0007109810991098091CB059091CC05A0917E
:1020C000CD05B091CE0589839A83AB83BC8390E420
:1020D000890E911C8091CF059091D005A091D105DA
:1020E000B091D2058D839E83AF83B8871B0190E2A8
:1020F000290E311CA60195018D819E81AF81B88585
:10210000281B390B4A0B5B0BC301B2010E949028BC
:1021100024E6C22ED12CE12CF12CA70196010E94BD
:102120002D28232F342F452F552747FD5A95810100
:10213000020F131F29893A894B895C8989819A8109
:10214000AB81BC81281B390B4A0B5B0BC301B2016D
:102150000E949028A70196010E942D28232F342F3A
:10216000452F552747FD5A955401A20EB31E2D85C4
:102170003E854F8558898D819E81AF81B885281B0A
:10218000390B4A0B5B0BC301B2010E949028A701D7
:1021900096010E942D28232F342F452F552747FDC8
:1021A0005A95220E331E29853A854B855C85898197
:1021B0009A81AB81BC81281B390B4A0B5B0BC30195
:1021C000B2010E949028A70196010E942D28BB27EA
:1021D00057FDBA95A52F942F832F880D991D98012F
:1021E000A501B10164960FB6F894DEBF0FBECDBF56
:1021F000DF91CF911F910F91FF90EF90DF90CF90E3
:10220000BF90AF909F908F907F906F905F904F9016
:102210003F902F900C94C30A912C812C70E060E0C9
:102220004ACF2F923F924F925F926F927F928F92FE
:102230009F92AF92BF92CF92DF92EF92FF920F9355
:102240001F93CF93DF9300D01F92CDB7DEB74B0122
:102250005C0129013A0109838E2D2091D30530912B
:10226000D4053B832A836901330FEE08FF088823D6
:1022700009F489C065E070E080E090E00E94FB0F07
:1022800062507109810991091B0165E070E080E0ED
:1022900090E00E94FB0F8B019C0102501109210963
:1022A00031098981282F880F330BAA81BB810E94B5
:1022B000E22824E630E040E050E00E942D28298307
:1022C000121614F021E029838091CF059091D0055A
:1022D000A091D105B091D205A3019201281B390B21
:1022E0004A0B5B0BC701B6010E94902824E6422EE0
:1022F000512C612C712CA30192010E942D28232FB7
:10230000342F452F552747FD5A95005E1F4F020F6A
:10231000131F8091CB059091CC05A091CD05B09174
:10232000CE05A5019401281B390B4A0B5B0BC70195
:10233000B6010E949028A30192010E942D28BB277C
:1023400057FDBA95A52F942F832F30E4230E311C0F
:10235000820D931D4981B8010F900F900F90DF916E
:10236000CF911F910F91FF90EF90DF90CF90BF9092
:10237000AF909F908F907F906F905F904F903F9025
:102380002F900C94470B312C212C10E000E089CFCA
:102390002F923F924F925F926F927F928F929F9275
:1023A000AF92BF92CF92DF92EF92FF920F931F9363
:1023B000CF93DF93CDB7DEB7A1970FB6F894DEBF0A
:1023C0000FBECDBF3C016F8BFC01EC54FF4F608111
:1023D00006E1609FB00111246558744F46E150E05A
:1023E000CE0101960E940E28D30194968C9190E024
:1023F000B0E0A0E0EE24F82E092F1A2FE88EF98E17
:102400000A8F1B8F130103E1200E311C912C9301C5
:102410002D573F4F3F8F2E8FA3014D5A5F4F59A32A
:1024200048A3D10111968C91811102C091100AC16B
:10243000F10120812F3F09F04BC0D3016D917D91B7
:102440008D919C91139714962D913D914D915C9196
:102450001797E88CF98C0A8D1B8D2E193F09400BBC
:10246000510B1E96ED91FC91E330F10519F03D976B
:10247000369718F43C5F4F4F5F4F14E0F12EB5E0F4
:102480009F103EC0D3011C96EC91C12CBEEFDB2EF9
:10249000EE24EA94FE2CEE2329F0C12CA2E0DA2EE1
:1024A000E12CF12C6C0D7D1D8E1D9F1DF101E45959
:1024B000FF4FA080B180C280D380D101DC96ED9027
:1024C000FD900D911C91DF978F880E941510B3C06D
:1024D000B4E02B0290011124260D371DF901E15BB8
:1024E000FF4F608171818281938121583F4FF901B3
:1024F0002081318142815381F2E0B3E09F1611F2D5
:102500009B1215C0D3011C96EC91C12CFEEFDF2E5F
:10251000EE24EA94FE2CEE2329F0C12CE2E0DE2E1C
:10252000E12CF12C6C197D098E099F09BFCFB1E018
:102530009B12BCCFA090D305B090D4050B2C000CFF
:10254000CC08DD08EF89EE2309F495C065E070E062
:1025500080E090E00E94FB0F6250710981099109AF
:102560007B0165E070E080E090E00E94FB0F8B0152
:102570009C0102501109210931094090D305509066
:10258000D405AE8DBF8D2D913D914D915C91809183
:10259000CF059091D005A091D105B091D205281B0F
:1025A000390B4A0B5B0BC601B5010E94902824E64B
:1025B00030E040E050E00E942D28232F342F452F9B
:1025C000552747FD5A95005E1F4FF801E20FF31F94
:1025D000FD8FEC8FA8A1B9A12D913D914D915C91FA
:1025E0008091CB059091CC05A091CD05B091CE0501
:1025F000281B390B4A0B5B0BC601B5010E949028C2
:1026000024E630E040E050E00E942D28BB2757FD33
:10261000BA95A52F942F832F9701205C3F4F820FEF
:10262000931F8201F3012485AE014F5E5F4F6C8DD5
:102630007D8D0E94660D9394B4E02B0E311CECE06E
:102640009E12EFCEA1960FB6F894DEBF0FBECDBF9F
:10265000DF91CF911F910F91FF90EF90DF90CF907E
:10266000BF90AF909F908F907F906F905F904F90B2
:102670003F902F900895F12CE12C10E000E07DCFE9
:102680002F923F924F925F926F927F928F92AF9272
:10269000BF92CF92DF92EF92FF920F931F93CF934F
:1026A000DF9300D000D0CDB7DEB780909607A12C85
:1026B00048E7B42EC12CD12CE12C18EEF12E03E00A
:1026C00010E020E038E740E050E060E078E18CEF97
:1026D0009FEF0E9415108091990766E00E94A02844
:1026E000933009F459C208F080C1913009F4D4C183
:1026F000412C62EA562E6EEF662E77247A94923041
:1027000009F40DC2412C30E7532E3EEF632E77249F
:102710007A9480909607A12C9AE5B92EC12CD12CE1
:102720008301720120E038E740E050E0C301B201CC
:102730000E9415102FE0F21A0109110980909607E6
:10274000A12C2FE5B22EC12CD12C20E03AE540E09F
:1027500050E0C301B2010E9415108301720181EFA4
:10276000F81A0F4F1F4F8090960720E03AE540E09F
:1027700050E0C301B2010E94151098EC590E611C83
:10278000711C4114A8E55A06A2E06A06710409F614
:10279000C090D305D090D4050D2C000CEE08FF0896
:1027A0008091CF059091D005A091D105B091D2052F
:1027B00020E038E740E050E0281B390B4A0B5B0B68
:1027C000C701B6010E94902824E6422E512C612CAC
:1027D000712CA30192010E942D28232F342F452F05
:1027E000552747FD5A95D9019196BA83A98320911F
:1027F000D5053091D6054091D7055091D8058091E7
:10280000CB059091CC05A091CD05B091CE05281BAC
:10281000390B4A0B5B0BC701B6010E949028A3013C
:1028200092010E942D28BB2757FDBA95A52F942F02
:10283000832FC69621E044E169817A810E94B60C1B
:102840006091960785ED95E00E94C811609196070A
:102850008BE896E00E94C811809188078823A1F038
:10286000209182073091830740918407509185071A
:1028700060917E0770917F0780918007909181071A
:10288000E12C04E00E941111809194078823A1F0AB
:1028900020918E0730918F074091900750919107BA
:1028A00060918A0770918B0780918C0790918D07BA
:1028B000E12C04E00E94111101E025E044E362E014
:1028C00070E082E090E00E94310D4091E60547FD06
:1028D0004F5F459523E063E070E083E090E00E9465
:1028E000B60C01E025E044E362E070E08AE490E0A9
:1028F0000E94310D40919C0647FD4F5F942F9595A6
:1029000023E0492F63E070E0EDE7F0E0DF01A91B71
:10291000B10997FDB395CD010E94B60C80919A073D
:10292000882321F082E090E00E94D60C80919A07E3
:10293000823020F088E090E00E94D60C80919B07C6
:10294000882321F08DE790E00E94D60C80919B07B0
:10295000823020F087E790E00E94D60C01E025E06D
:1029600044E36AE370E082E090E00E94310D409120
:10297000E70547FD4F5F459523E06BE370E083E09B
:1029800090E00E94B60C01E025E044E36AE370E0C9
:102990008AE490E00E94310D40919D0647FD4F5F13
:1029A000942F959523E0492F6BE370E0EDE7F0E07D
:1029B000DF01A91BB10997FDB395CD010F900F90D1
:1029C0000F900F90DF91CF911F910F91FF90EF909B
:1029D000DF90CF90BF90AF908F907F906F905F907F
:1029E0004F903F902F900C94B60C943009F429C16D
:1029F000953009F087CE809173019091740104960F
:102A00009093740180937301512C412C712C612C93
:102A1000A0E92A2E3324339480917301909174019C
:102A2000840D951D66E970E00E94BA285C01ACE255
:102A3000AA1AB1080B2C000CCC08DD08DC2CCB2C1E
:102A4000BA2CAA24C301B1010E94CE287C01B6ECA5
:102A5000EB1AF1080F2C000C000B110B102F0F2D8F
:102A6000FE2CEE24A6019501365041095109C801FA
:102A7000B701725081099109809096070E94151044
:102A800027E4620E711C85E2480E511C99E269161A
:102A900094E0790609F67CCE80909607A12C79E621
:102AA000B72EC12CD12CE12C18E3F12E0FEF1FEF24
:102AB00020E033E740E050E060E07CE08EEF9FEF05
:102AC0000E94151080909607A12CF3E7BF2EC12C11
:102AD000D12CE12C14E6F12E00E010E020E039E6E4
:102AE00040E050E060E078E38FEF9FEF0E94151028
:102AF00080909607A12CB4E6BB2EC12CD12CE12CE2
:102B000010E9F12E01E010E020E033E740E050E072
:102B100060E074E680E090E00E94151039CED301A9
:102B2000C2019C5EAF4FBF4F89839A83AB83BC8346
:102B300080909607A12C49E6B42EC12CD12C7C01A3
:102B40008D0120E038E740E050E0C301B2010E946F
:102B500015108301720198EDF91A0F4F1F4F8090E5
:102B60009607A12C58E7B52EC12CD12C20E039E6D0
:102B700040E050E069817A818B819C810E94151030
:102B8000A6E95A0E611C711C4114B0E95B06B1E064
:102B90006B06710421F6FCCDE090960704E120E07D
:102BA00038E740E050E060E070E0CB010E94111196
:102BB00020E4298338E0632E712C89810E945E0E07
:102BC0008C01898180540E945E0EAEE1A89F500165
:102BD000A99FB00C1124AB2CBB0CBB080B2C000C18
:102BE000CC08DD08B8E7AB0EB11CC11CD11CDC2C35
:102BF000CB2CBA2CAA24A09F7001A19FF00C112409
:102C0000EF2CFF0CFF080F2C000C000B110B102FEA
:102C10000F2DFE2CEE248090960720E038E740E050
:102C200050E060E070E0CB010E94151021E0621AD4
:102C300071088981805E89836114710409F0BDCFB8
:102C4000A7CDE09096070AE020E03EEC4FEF5FEF63
:102C500060E070EB8FEF9FEF0E941111E0909607FC
:102C600008E020E03EEC4FEF5FEF60E074EB8FEFA9
:102C70009FEF0E9411118CCDEF92FF920F931F9343
:102C8000CF93DF93CDB7DEB76C970FB6F894DEBF66
:102C90000FBECDBF7C01162FFC01EC54FF4F6083AB
:102CA000FC01208331834283538380E098E7A0E0D6
:102CB000B0E084839583A683B7831186108613863C
:102CC00012860487158617861686108A84E6818BFD
:102CD000128AEF54FF4F11821082329610826FEFEA
:102CE00070E080E090E00E94FB0FF701EB54FF4F93
:102CF0006083F6E11F9FB00111246558744F46E1CF
:102D000050E0CE0101960E940E28F701E155FF4FD9
:102D10008F8598899183808389859FEFF701938BB5
:102D2000848B158A81E0868B2A85178A208F118EE5
:102D3000828F2B85138E248F858F868F2C85178EFF
:102D400020A381A382A32D8593A324A385A386A377
:102D50002E8597A320A781A782A714A610AA14AA3C
:102D600010AE14AEE05CFF4F108246E050E06CE223
:102D700071E0CE0147960E940E28FE017796D7019A
:102D8000AD5BBF4F89E4E80EF11C81918D93EA168B
:102D9000FB06D9F76C960FB6F894DEBF0FBECDBF19
:102DA000DF91CF911F910F91FF90EF9008951F92A7
:102DB0000F920FB60F9211248F939F938091E10091
:102DC0009091E100937F9093E10083FF0FC01092F8
:102DD000E90091E09093EB001092EC0092E3909365
:102DE000ED001092720198E09093F00082FF22C0F3
:102DF00093E09093E9009091F200992319F09AE3FF
:102E00009093E80090916301992341F090916301C0
:102E1000915090936301911101C05D9A909171015D
:102E2000992341F09091710191509093710191110A
:102E300001C0289A84FF18C08091E2008E7E8160D4
:102E40008093E2008091E1008F7E8093E100809189
:102E500064018E7E8061809364019F918F910F90B9
:102E60000FBE0F901F90189580FFF7CF8091E20062
:102E70008E7E80618093E2008091E1008E7E80935F
:102E8000E100809164018E7E8160E5CF1F920F92F8
:102E90000FB60F921124CF92DF92EF92FF920F9311
:102EA0001F932F933F934F935F936F937F938F93D2
:102EB0009F93AF93BF93EF93FF93CF93DF93CDB7E0
:102EC000DEB76C97DEBFCDBF1092E9008091E800BD
:102ED00083FF25C068E0CE0145960E94710882EF0D
:102EE0008093E8008D8987FF39C09091E80090FFBA
:102EF000FCCF982F907609F034C19E894F89588D68
:102F00002F89F88C911131C0803861F58091620170
:102F10008093F1001092F1008EEF8093E8006C96A0
:102F20000FB6F894DEBF0FBECDBFDF91CF91FF91FA
:102F3000EF91BF91AF919F918F917F916F915F9131
:102F40004F913F912F911F910F91FF90EF90DF9044
:102F5000CF900F900FBE0F901F9018959EEF9093FB
:102F6000E800C7CF1092F100D5CF913059F481110C
:102F7000D3CF4130510581F6809162018D7F8093DE
:102F80006201CACF933049F48111C6CF4130510557
:102F900019F6809162018260F2CF953041F4809100
:102FA000E80080FFFCCF20682093E300B5CF963087
:102FB00009F0A9C00B8D1C8D22E01092E90010923F
:102FC000600110925F01F2122EC010925E01109209
:102FD0005D010E9440081F8299E09983FA8291E086
:102FE0009E8390EA98879AEF998720915F013091AC
:102FF0006001275F3F4F3C832B838D831092E90054
:103000001092600110925F0110935E0100935D01C8
:1030100049E050E0BE016F5F7F4F80E00E941A08D8
:103020000E94400879CF10935E0100935D010E94D9
:103030005707DC0112960D911C910115110509F439
:1030400051C1D801ED91FC910480F581E02DBE01C4
:103050006B5E7F4FC8010995009709F03EC1F801EA
:1030600000851185EACFF3E0FF120EC08F89882317
:1030700009F440C0823061F440E867E083E79BE0F8
:103080000E94C219811148CF81E28093EB0047CFA3
:10309000813029F440E86BE087E69BE0F1CF833094
:1030A00099F70E945707DC011296ED90FC908E0173
:1030B0000F5F1F4F6801E114F10479F0D701ED9122
:1030C000FC910680F781E02DB801C7010995080F32
:1030D000111DF701E084F184EECFD8011C92F601B6
:1030E00001900020E9F73197BF016C197D0940E09C
:1030F000C601C6CF61E57BE0FB01449150E080E86A
:103100000E941A0809CF973009F4BECF983021F4F5
:1031100081E08093F10000CF993009F0FDCE8370FB
:1031200009F0B2CFEFE1F1E081E031E096E32191E7
:10313000222371F08093E9003093EB00DF011197B7
:103140002C912093EC009093ED008F5F873079F7FE
:103150008EE78093EA001092EA008F8980937201D3
:10316000DBCE8B8D9C8D1092E90010926001109245
:103170005F0190935E0180935D01898D811192C002
:103180008E899D89913A49F4813209F07DCF47E0DB
:1031900050E065E071E080E0B3CF913209F074CF88
:1031A000833269F48F89988DB0E0A0E080930101AB
:1031B00090930201A0930301B0930401ADCE80323D
:1031C00069F48091E80082FFFCCF67E085E091E040
:1031D0000E9471088BEF8093E8009ECE823209F046
:1031E0009BCE8F8980930C01EEEFFFE78591949140
:1031F0008B3F9C4D51F1E0E0F8E08091050190910A
:103200000601A0910701B0910801803B9440A105FF
:10321000B105F1F480910C0180FD1AC0EE3F8AE007
:10322000F80789F587E797E79183808380916000AD
:103230008093610188E19BE00FB6F894A895809394
:1032400060000FBE9093600067CEEEEFFAE0D5CF3E
:10325000808191818737974709F05ECEA89580914C
:1032600060008861809360008091610180936000BC
:10327000EE3F2AE0F20789F08091FE0A9091FF0A62
:103280009183808349CE808191818737980751F25D
:103290009093FF0A8093FE0AC5CF1092FF0A109206
:1032A000FE0A3ACE0E945707DC0112960D911C913E
:1032B0000115110509F4E8CED801ED91FC910190BA
:1032C000F081E02DBE016B5E7F4FC8010995811131
:1032D00023CEF80100851185EBCF181619060CF4E2
:1032E0001BCED2CEF1E0FF12BECE65E57BE004CF6F
:1032F0001F920F920FB60F9211242F933F938F932B
:103300009F93AF93BF938091550190915601A091E7
:103310005701B09158013091540123E0230F2D370C
:1033200058F50196A11DB11D2093540180935501BC
:1033300090935601A0935701B09358018091590181
:1033400090915A01A0915B01B0915C010196A11D81
:10335000B11D8093590190935A01A0935B01B093E2
:103360005C01BF91AF919F918F913F912F910F90F1
:103370000FBE0F901F90189526E8230F0296A11DEF
:10338000B11DD2CFEF92FF920F931F93CF93DF9394
:10339000F82E192FE62E042F81E0860F880F0E9449
:1033A000EC0783E00E94EC07CF2DD12FEC0EFD2E11
:1033B000F11CCE15DF05B9F007FF13C0FE018491A3
:1033C0000E94EC07182F80E00E94EC0781232196D1
:1033D0008111EFCFDF91CF911F910F91FF90EF906F
:1033E00008958881EDCF81E0F5CFE5E7F5E0138220
:1033F000128288EE93E0A0E0B0E084839583A683F8
:10340000B78389E291E0918380838FEF9FEF958767
:103410008487E5ECF5E0138212828BE391E09183DF
:103420008083158214828AE0E1E1F1E0ABECB5E043
:1034300001900D928A95E1F71092960710929707E6
:10344000109298071092990710929A0710929B0772
:1034500010929D0710929C0710929E070895CF939B
:10346000DF93CDB7DEB76E970FB6F894DEBF0FBE11
:10347000CDBF789484B5826084BD84B5816084BDFD
:1034800085B5826085BD85B5816085BD80916E0002
:10349000816080936E001092810080918100826033
:1034A0008093810080918100816080938100809170
:1034B0008000816080938000809191008260809381
:1034C00091008091910081608093910080919000A3
:1034D0008160809390008091C10084608093C100DE
:1034E0008091C10082608093C1008091C1008160A1
:1034F0008093C1008091C30081608093C30080915C
:10350000C00082608093C0008091C200816080937F
:10351000C20080917A00846080937A0080917A0062
:10352000826080937A0080917A00816080937A0033
:1035300080917A00806880937A00109272011092D4
:103540006201109264018091D70081608093D7005E
:1035500080EA8093D80089B5806189BD89B5826091
:1035600089BD09B400FEFDCF61E070E080E090E02D
:103570000E94A3088091D8008F7C80618093D8003E
:103580008091E000807F8093E0008091E1008E7E5A
:103590008093E1008DE08093E200559A209A81ECBF
:1035A00080937C0085B1806F85B984B1877E84B9B2
:1035B00084B1876E84B95E9A5F988AB1806D8AB94A
:1035C000769A6E9881B3806F81BB899880B38D7035
:1035D00080BB80E58CBD81E08DBD85E090E00E94E0
:1035E0008A095F9A85E090E00E948A095E985C985B
:1035F000E4E2F7E081E397E024912EBD00000DB4F2
:1036000007FEFDCF31968E179F07B1F75C9A81E8D0
:1036100080936400809165008160809365000E94C2
:10362000A20A80E80E94E3098823B1F15C9885EA48
:103630008EBD00000DB407FEFDCF5C9A2E982F982A
:103640002D988091640080628093640081E083BF44
:10365000889513BEFCCF0E94880988EC90E00E94F8
:103660008A092F9882E090E00E9417288F3F29F066
:103670006FEF82E090E00E941F2884EF91E00E94AB
:103680008A092F9A84E80E94E3098111FBCF0FC0B9
:1036900088EC90E00E948A0984E00E94E309882374
:1036A00041F12D9884E80E94E3098111D4CF84E18F
:1036B0000E94E309882361F30E94880988EC90E066
:1036C0000E948A092E9882E090E00E9417288823A1
:1036D00029F060E082E090E00E941F2884EF91E0F2
:1036E0000E948A092E9A84E10E94E3098111FBCF8E
:1036F000CFCF0E94880982E090E00E94F90F8823D2
:1037000009F44DC03E9A3F9A81E090E00E94F90F83
:10371000182F147081FF0FC011112E98B1EFEB2EEE
:10372000FF24FA9480E40E94E3098823D9F12E9AB9
:103730002F9A0E94880982E390E00E948A090E94E1
:103740008F098111F8CF80E18093000110927D07ED
:10375000E1E4F7E08CE3DF011D928A95E9F710922E
:10376000880710929407FE0131961F018FB7F894D5
:103770004091550150915601609157017091580147
:103780008FBF10915201112309F469C010925201A8
:1037900080E090E0892B51F30E940000E7CF3E9833
:1037A0003F98B2CF112331F024E0E216F10411F476
:1037B0002E9A2F9881E00E940D0700E128E544E74A
:1037C00056E0B70184E190E00E9457060E94A20AE9
:1037D0008FE090E00E948A093FEFE31AF30A89E143
:1037E000E816F10409F09ECF112311F02F9A2D98BD
:1037F00080E991E00E948A090E94880981E090E0B6
:103800000E94F90F80FF97CF8AE090E00E94F90FA5
:103810009FEF980F9E3F08F08ECF22E330E0309369
:103820004F0120934E0128E330E030934D01209367
:103830004C010BE010E0682F85EC95E00E940F0C26
:10384000C8010E94F90F0F5F1F4F0131110599F751
:103850000E94A20A88EE93E00E948A096CCF8091B0
:103860005301F42FF81B8F2F90910001F91748F4A2
:103870008F5F891708F08CCF81E083BF889513BED6
:1038800087CF81E080935201409353018091500192
:103890009091510101969093510180935001809134
:1038A0004B0180934A010E948F0980934B01E5E709
:1038B000F1E011111FEF0024119311931193119353
:1038C0000394D1F710924D0110924C0110924F01C8
:1038D00010924E018091C9059091CA0582309105E0
:1038E00009F43BC140F4009779F1019709F4AAC0AB
:1038F0000E94A20A4DCF8430910511F40C94FA264F
:1039000008F4B8C10597A1F78EE190E090934F01BC
:1039100080934E0189E190E090934D0180934C019A
:10392000809199078A3011F00C94552786E09BE02E
:103930000E94720C88E00E94D8098823C9F2109274
:10394000CA051092C905D4CF00E220E846EB57E043
:1039500070E060E090E080E00E9457068DE290E029
:1039600090934F0180934E018AE290E090934D0135
:1039700080934C0180919E07811104C081EB97E0F8
:103980000E94720C83E491E00E94EC0F10929E075B
:1039900088E00E94D809882331F081E090E090937C
:1039A000CA058093C90500E220E241E357E060E2E6
:1039B00070E090E080E00E94570610E000E03801DF
:1039C000E3E075946794EA95E1F7F5E0660C771CFF
:1039D000FA95E1F7AFE7EA2EF12C93012055384F25
:1039E0003901480130E2830E911CF301EE19FF0901
:1039F000E491D12CC12CAE2EB12CC5010C2C02C0EF
:103A0000959587950A94E2F780FF07C041E0B401DD
:103A10006C0D7D1DC7010E94A50A8FEFC81AD80A38
:103A200098E0C916D10449F7A1E0EA1AF108BFE508
:103A3000EB16F104D1F6085F1F4F0032110509F0B3
:103A4000BECF56CF8EE190E090934F0180934E0110
:103A500082E090E090934D0180934C0186EB99E0D9
:103A60000E94720C32ECA32E39E0B32E712C45E08B
:103A7000642E54E1552E68E1462E76E3872E912C74
:103A8000872D662D0E94A028859D802D1124845F9E
:103A9000E82EF12C949D902D11249B5FC92ED12CE2
:103AA00001E080919807871100E022E144E1B7012D
:103AB000C6010E94310D46E150E0B501C1010E94EE
:103AC0000E28B701685F7F4F06E910E020E0AE01E5
:103AD0004F5E5F4FC6010A960E94660D809198075F
:103AE00078120DC0E8E2F0E0F0934F01E0934E0150
:103AF00090924D0180924C01C1010E94EC0F739491
:103B0000F6E1AF0EB11C2AE07212BACF80E20E9439
:103B1000D809882339F080919807882319F08150BB
:103B20008093980780E40E94D809882339F0809117
:103B30009807893018F48F5F8093980788E00E9477
:103B4000D809882309F4D4CE1092990710929A07C5
:103B500010929B0782E090E02BC08DE290E0909362
:103B60004F0180934E0185E090E090934D0180934A
:103B70004C0184EA9AE00E94720CD0909907DA9482
:103B8000DA9492E1E92EF12C26E1C22E39E03D15BE
:103B9000A0F4D3948BE0E80EF11C9EE3E916F10447
:103BA000A9F7809199078A3008F445C085E090E034
:103BB0009093CA058093C9059BCE80919907A3E293
:103BC000B0E0B0934F01A0934E01F0924D01E0920E
:103BD0004C010D2D10E08017110651F581EA9AE095
:103BE0000E94720CDC9CB00111246E53764F46E1AA
:103BF00050E0C1010E940E28C1010E94EC0F80918B
:103C000099078017110629F224F2F1018E2F8219EB
:103C100091919111FBCF482F440F480F440F21E0A1
:103C2000B7016D5F7F4F8FE290E00E949709B1CF9F
:103C30008EE99AE0D5CF88E00E94D809882309F45C
:103C400057CE00E020E03EE140E050E06091980770
:103C500085ED95E00E943C1601E020E034E640E06E
:103C600050E0609199078BE896E00E943C1683E053
:103C700090E09ECF10919707112331F011501093CF
:103C800097070E94401334CE80919607882319F03D
:103C9000815080939607E0907D07F12C0E948F0958
:103CA000F701EF5BF84F808380917D0790E00196EC
:103CB0006CE370E00E94CE2880937D070EE7E02E33
:103CC00007E0F02EE5ECF5E0FE8FED8F86E9C82EDB
:103CD00087E0D82ED7011A968C911A97882339F14C
:103CE00018966D917C911997072E000C880B990BF3
:103CF0008D909D90AD90BC901397680D791D8A1D95
:103D00009B1DF70160837183828393834B015C0168
:103D1000F8EC9F0EA11CB11C21E0821620E992064E
:103D200021E0A206B10408F4A3C01A961C92FCE09C
:103D3000EF0EF11CCE14DF0469F68091E5058823AF
:103D400019F081508093E5058091E3059091E40599
:103D5000843091050CF014C23091E7050091E10523
:103D60003233B4F180917D0790E0CB966CE370E044
:103D70000E94CE2850E4D52E60E2C62E011104C068
:103D800020E2D22E40E4C42EECE3F0E04FEF22E03C
:103D90009CE3E92EF12C90E0DC01AF5BB84F5C9125
:103DA000A22FB0E0A55EBE4F6C9166FFB4C06F7BE2
:103DB0006C29752F7623223009F0B2C0671711F4F1
:103DC0000C946627CB96B7010E94CE28319719F73D
:103DD000002309F4BAC080E400E20E94E3098823CA
:103DE00009F4D0C04091D5055091D6056091D70512
:103DF0007091D80580918B0690918C06A0918D06CC
:103E0000B0918E06481B590B6A0B7B0B452F562F22
:103E1000672F772767FD7A9577FF07C070956095C4
:103E2000509541955F4F6F4F7F4F809199069091CC
:103E30009A069C01245031092230310540F023506C
:103E400031092230310518F00C9709F081C0423356
:103E50005105610571050CF07BC082E090E0909304
:103E6000E4058093E3051092DE051092DD05A9C0FC
:103E7000F7010385EBE8F6E0011102C0E5EDF5E09E
:103E800080809180A280B380681979098A099B0992
:103E9000672F782F892F992787FD9A954480558021
:103EA000668077802AE0521A61087108D70114965B
:103EB0008D909D90AD90BC90179784189508A6089A
:103EC000B708892C9A2CAB2CBB24A7FCBA949B0175
:103ED000AC010E9490282B013C01A5019401C50171
:103EE000B4010E949028460E571E681E791EB4E643
:103EF0004B165104610471040CF019CF85ED95E067
:103F0000011102C08BE896E040E0BF010E94EE097B
:103F1000F70112860CCF65FF4CCF6F7D6D2949CF1D
:103F2000671751F0603519F0603309F04BCF6076B8
:103F30006061652309F446CF451709F443CF222376
:103F400009F4B7C72150452F3DCF80E200E445CFAB
:103F50008091DD059091DE052091E105222379F025
:103F60002CE430E0820F931F9093DE058093DD05F3
:103F700081E090E09093E4058093E30522C024EB78
:103F80003FEFF0CF80E10E94E309882309F475C078
:103F900083E090E09093E4058093E3051092DE05C2
:103FA0001092DD0588E00E94D809882309F457C0E3
:103FB0008DE090E09093E4058093E30588E08093A2
:103FC000E50580918406909185062091DD0530916C
:103FD000DE058217930724F49093DE058093DD05B8
:103FE0009195819591092091DD053091DE05281785
:103FF000390724F49093DE058093DD0580E80E9464
:10400000E309882369F08091E205811109C080E805
:104010009BEF9093E0058093DF0581E08093E205BC
:1040200088E00E94E30981115EC088E00E94D809FF
:10403000811195C084E00E94D809882309F46BC0DF
:104040008091E3059091E405409709F464C087E00E
:1040500090E09093E4058093E3058AE08EC084E0CD
:104060000E94D809882309F4ACCF80E190E09093B6
:10407000E4058093E3058AE0A2CF802F0E94E30944
:104080002091DD053091DE05882381F08091E105E6
:10409000882349F084EB9FEF280F391F3093DE050A
:1040A0002093DD0565CF8CE490E0F6CF1092E40517
:1040B0001092E3051216130684F42353310930934A
:1040C000DE052093DD058091DD059091DE05C29629
:1040D0008536910508F075CFC6CE2115310599F3C7
:1040E0002D5C3F4FECCF84E00E94E309882309F464
:1040F0009CCF8091E70584360CF497CF8CE090E05C
:104100009093E4058093E30588E28093E50510929F
:10411000E7058093970780919B06882319F08150CB
:1041200080939B068091990690919A0620919B0618
:1041300040918B0650918C0660918D0670918E0691
:10414000843091050CF030C5211107C180913E07E4
:10415000882309F4D4C0815080933E07FEC080912B
:10416000E3059091E4050D9709F464CF84E090E0B5
:104170009093E4058093E30588E08093E505CBCF39
:104180002091E5052111C7CF8C30910541F485E0E0
:1041900090E09093E4058093E30584E1EECF8430D2
:1041A000910541F485E090E09093E4058093E30568
:1041B0008CE0E3CF8530910519F486E090E0E9CFFB
:1041C0008730910541F488E090E09093E405809376
:1041D000E3058FE0D2CF8830910541F489E090E08B
:1041E0009093E4058093E30589E1C7CF8D30910575
:1041F00019F48EE090E0D8CF8E30910539F48FE03D
:1042000090E09093E4058093E305B7CF803191056A
:1042100041F481E190E09093E4058093E30582E12D
:10422000ACCF8131910519F482E190E0B2CF8331B6
:10423000910509F05AC084E190E09093E4058093E1
:10424000E3058FE08093E50580918807882309F4D2
:1042500046C08091940721E030E081115CCF4CE0B2
:10426000429FC001439F900D11248B539A4FFC0134
:10427000ED53FE4F41E04083319640833B974091A0
:10428000D5055091D6056091D7057091D80540832A
:1042900051836283738383549E4F4091D90550911B
:1042A000DA056091DB057091DC055C5061097109EC
:1042B000DC014D935D936D937C9313978091E105A1
:1042C000882381F080E09DEF4CE0429FF001439F06
:1042D000F00D1124EA57F84F918380831CCF30E012
:1042E00020E0BDCF80E093E0EFCF449719F485E163
:1042F00090E06BCF1092E4051092E3050CCFC090D4
:10430000D505D090D605E090D705F090D805C41A11
:10431000D50AE60AF70ACD2CDE2CEF2CFF24E7FCA9
:10432000FA94F7FE08C0F094E094D094C094C11CB5
:10433000D11CE11CF11C0091990780913C079091E0
:104340003D078230910509F4E4C308F02DC30097BE
:1043500009F45DC3019709F488C380919306909195
:104360009406181619060CF01AC4499790939406EF
:10437000809393068090D5059090D605A090D705A0
:10438000B090D805C0908B06D0908C06E0908D063A
:10439000F0908E0681E0C814D904EA04FB040CF006
:1043A00080E08093E10581E0C814D904EA04FB04AD
:1043B0000CF480E0809397068091DF059091E005F2
:1043C000C3969093E0058093DF054091DD05509101
:1043D000DE05052E000C660B770B480D591D6A1D76
:1043E0007B1D4093D5055093D6056093D7057093F8
:1043F000D805092E000CAA0BBB0B8090D905909014
:10440000DA05A090DB05B090DC05880D991DAA1D8A
:10441000BB1D8115E8E79E07A105B1050CF075C429
:104420008093D9059093DA05A093DB05B093DC0562
:104430008091950690919606C396909396068093E8
:1044400095068090930690909406092C000CAA087B
:10445000BB08C80CD91CEA1CFB1CC0928B06D0926E
:104460008C06E0928D06F0928E06092E000CAA0BA7
:10447000BB0B80908F0690909006A0909106B09014
:104480009206880D991DAA1DBB1D8115E8E79E07A0
:10449000A105B1050CF04CC480938F069093900653
:1044A000A0939106B0939206411558416C4F7F4FEF
:1044B00064F480E098E1ACEFBFEF8093D505909372
:1044C000D605A093D705B093D8058091D5059091D6
:1044D000D605A091D705B091D8058130984EA3405C
:1044E000B10564F080E098EEA3E0B0E08093D505DC
:1044F0009093D605A093D705B093D805C11498E141
:10450000D9069CEFE9069FEFF90664F480E098E194
:10451000ACEFBFEF80938B0690938C06A0938D0633
:10452000B0938E0680918B0690918C06A0918D069B
:10453000B0918E068130984EA340B10564F080E0C2
:1045400098EEA3E0B0E080938B0690938C06A09346
:104550008D06B0938E068091E3059091E405853039
:10456000910509F400C48830910509F4FAC30AE002
:104570008E309105B1F10BE08131910591F18431DB
:10458000910509F4F0C38331910509F4EEC309E004
:104590008A30910531F105E08230910511F18330C7
:1045A000910509F4E2C38D30910509F4DEC39C0145
:1045B0002F5031092230310508F4D7C382319105DB
:1045C00009F4D3C3019709F0C6C3809150019091BB
:1045D0005101E3E096958795EA95E1F7082F03707E
:1045E0000F5F96E0099FB00111246555754F46E0B5
:1045F00050E0CE0147960E940E28E0905001F090C6
:104600005101202FA701BE01695E7F4F85ED95E026
:104610000E94890E8091990690919A0685309105A5
:1046200009F4B0C38830910509F4A6C38E30910512
:1046300009F4A4C38131910509F4A2C38431910521
:1046400009F4A0C38331910509F4A2C38A3091050E
:1046500009F49AC38230910509F498C38330910517
:1046600009F496C38D30910509F492C39C012F5033
:1046700031092230310508F48BC38231910509F4E8
:1046800087C3019709F073C373E0F694E7947A95B2
:10469000E1F71E2D13701F5FA6E01A9FB0011124D1
:1046A0006555754F46E050E0C1010E940E284091CB
:1046B000500150915101212FB1018BE896E00E94E9
:1046C000890E8091E3059091E4058530910509F408
:1046D00061C38830910539F08E30910509F45AC3D1
:1046E000419709F065C0E5E001EA16E061EDE62ECC
:1046F00066E0F62EB4E0EB9FF0011124EB53FA4F85
:104700006F012FE5C20ED11CE157FF4FD8018C91EC
:10471000882309F441C3D6016D917D918D919C91BF
:10472000D801D9968D909D90AD90BC90DC9768197A
:1047300079098A099B09672F782F892F992787FD87
:104740009A9580809180A280B380A759BF4F4D90E9
:104750005D906D907C9084189508A608B708892C08
:104760009A2CAB2CBB24A7FCBA949B01AC010E94F1
:1047700090282B013C01A5019401C501B4010E94C0
:104780009028460E571E681E791EB9E14B1651043B
:10479000610471040CF000C341E08091E5058031B3
:1047A00008F440E06BE876E085ED95E00E94EE09C4
:1047B0008091990690919A068530910509F4F3C28B
:1047C0008830910539F08E30910509F4ECC241979B
:1047D00009F062C0E5E005EF15E024E0E29FF0019A
:1047E0001124EB53FA4F7F013BEEE31A3EEFF30A3D
:1047F000EB5BFE4FAD8DBE8D96968C91882309F4B0
:10480000D4C2D7016D917D918D919C91AD8DBE8D5E
:10481000A15ABF4F8D909D90AD90BC9068197909B9
:104820008A099B09672F782F892F992787FD9A95E9
:1048300080809180A280B380AD8DBE8DA157BF4F87
:104840004D905D906D907C9084189508A608B708EF
:10485000892C9A2CAB2CBB24A7FCBA949B01AC01ED
:104860000E9490282B013C01A5019401C501B401CF
:104870000E949028460E571E681E791EB9E14B16FD
:104880005104610471040CF090C240E065ED75E0E4
:104890008BE896E00E94EE09C090D505D090D60531
:1048A000E090D705F090D80540908B0650908C068C
:1048B00060908D0670908E066091D9057091DA0532
:1048C0008091DB059091DC0500918F061091900698
:1048D0002091910630919206600F711F821F931FE5
:1048E00022E030E040E050E00E942D2849015A01CA
:1048F0008AE0981AA108B108C701B601640D751DB8
:10490000861D971D22E030E040E050E00E942D28F7
:104910002093CB053093CC054093CD055093CE0525
:104920008092CF059092D005A092D105B092D20589
:10493000C418D508E608F708CD2CDE2CEF2CFF2490
:10494000E7FCFA94F7FE08C0F094E094D094C09489
:10495000C11CD11CE11CF11CA701960129313105B4
:104960004105510524F429E130E040E050E060EADF
:104970007FE080E090E00E942D282C3331050CF47C
:104980001FC23093D4052093D3058091E605882378
:1049900009F41DC280919C06811173C980919A0708
:1049A0008F5F80939A0718C28330910509F47EC007
:1049B000049709F0D2CC10929406109293066AE004
:1049C00070E080E090E00E94FB0F6111CBC080910D
:1049D0009D0682330CF4C8C023E130E030939A0680
:1049E000209399069FE090939B06825380939D06A7
:1049F00010923D0710923C076EE170E080E090E07D
:104A00000E94FB0F625E7F4F8F4F9F4F76C081E009
:104A100090E0BEE2CB16D104E104F10414F483E08B
:104A200090E090933D0780933C078FE090E0801BDF
:104A30009109880F991FAC01092E000C660B770BAA
:104A40000B9774F0CB01BA016A5071098109910981
:104A50000E94FB0FDC01CB010A96A11DB11D7CCB8E
:104A60008AE090E0A0E0B0E077CB8091930690914F
:104A70009406209197062223B1F024EB3FEF820F9A
:104A8000931F9093940680939306E8E2CE16D10488
:104A9000E104F1040CF061CC84E090E090933D07D8
:104AA00080933C075ACC2CE430E0E9CF1092940676
:104AB0001092930664E670E080E090E00E94FB0FA5
:104AC000000F000F000F0C5E802E912CB12CA12C3A
:104AD000681579058A059B059CF484E090E0909325
:104AE0003D0780933C0764E170E080E090E00E9425
:104AF000FB0F6C5E7F4F8F4F9F4F60933E072DCC17
:104B0000FEE1CF16D104E104F1046CF782E090E0FD
:104B1000E6CF8091930690919406209197062223E8
:104B200099F02CE430E0820F931F909394068093C9
:104B300093062DE3C216D104E104F10444F010926F
:104B40003D0710923C0709CC24EB3FEFECCF6AE025
:104B500070E080E090E00E94FB0F672B682B692BD0
:104B600071F3FBCB633050F484E090E090939A06AD
:104B70008093990688E080939B063ACF87E090E087
:104B8000663038F0683018F48DE090E0EFCF80E1C7
:104B900090E090939A06809399068AE0ECCF009774
:104BA00009F4E8CB4996E2CB2111E4CB843091059E
:104BB00041F485E090E090939A06809399068CE00A
:104BC00020C08530910541F486E090E090939A06EC
:104BD0008093990684E115C08730910541F488E0FF
:104BE00090E090939A06809399068FE00AC08830EF
:104BF000910551F489E090E090939A06809399068C
:104C000089E180939B06B6CB8D30910519F48EE037
:104C100090E0D1CF8E30910539F48FE090E0909301
:104C20009A0680939906EDCF8031910541F481E198
:104C300090E090939A068093990682E1E2CF8131C9
:104C4000910519F482E190E0C1CF8331910509F01B
:104C500052C084E190E090939A06809399068FE089
:104C600080939B0680918807882309F43EC0809139
:104C7000940721E030E081117DCBECE0E29FC001A0
:104C8000E39F900D11248B539A4FFC01ED53FE4F7F
:104C9000A1E0A083319610823B97408351836283C9
:104CA000738383549E4F40918F065091900660917C
:104CB0009106709192065C5061097109DC014D9377
:104CC0005D936D937C93139780919706882381F071
:104CD00080E09DEF4CE0429FF001439FF00D1124D6
:104CE000EA57F84F9183808345CB30E020E0C5CF71
:104CF00080E093E0EFCF449719F485E190E071CF25
:104D000010929A061092990635CB80E098E7A0E0C1
:104D1000B0E08093D9059093DA05A093DB05B093BA
:104D2000DC051092E0051092DF051092E20580CBC1
:104D300080E098E7A0E0B0E080938F069093900623
:104D4000A0939106B0939206109296061092950643
:104D500010929806A9CB8091E20500E0882309F41F
:104D600040CC07E03ECC06E03CCC08E03ACC809159
:104D70009806882309F490CC17E08ECC1AE08CCCEE
:104D80001BE08ACC16E088CC19E086CC15E084CCF8
:104D900018E082CCE3E0A8CC0C5F1F4FE016F106D0
:104DA00009F0B4CC05CDE3E016CD2D8D3E8D2C5F02
:104DB0003F4F3E8F2D8F0217130709F01BCD6CCD8F
:104DC0008CE390E09093D4058093D305DECD809161
:104DD0009B078F5F80939B0784E090E09093CA05C8
:104DE0008093C90588E790E090939D0780939C0786
:104DF0000C94411E0E9440138DE290E090934F016D
:104E000080934E0189E190E090934D0180934C0195
:104E10008091E605811111C087EF9AE00E94720C23
:104E200080919C0790919D07009751F00197909376
:104E30009D0780939C070C94781C83EF9AE0EECF3B
:104E400080919A07823078F0809199078F5F8093E4
:104E5000990710929A0710929B078A3010F00C94D1
:104E6000D61D0C94AA1D80919B07823010F00C94E3
:104E7000D61D00E020E03EE140E050E06091890670
:104E800085ED95E00E943C1601E020E034E640E02C
:104E900050E060913F078BE896E00E943C1610922C
:104EA0008807109294070C94371E8CEF9AE00C94AC
:104EB000981C83E190E09093E4058093E3058FE0F4
:104EC0008093E50532533093E70525C945133AC869
:104ED0000C94E21E8F929F92AF92BF92CF92DF927C
:104EE000EF92FF92CF93DF93EC01688179818A8101
:104EF0009B81611571058105910521F464E279EDCD
:104F00008BE597E02DE133EF41E050E00E942D2842
:104F100049015A019B01AC01A7EAB1E40E944C2867
:104F20006B017C01ACEEB4EFA50194010E945A28FC
:104F3000C60ED71EE81EF91EF7FE06C081E0C81A8D
:104F4000D108E10880E8F80AC882D982EA82FB82A7
:104F5000C701B6019F77DF91CF91FF90EF90DF906F
:104F6000CF90BF90AF909F908F9008958F929F9217
:104F7000AF92BF92CF92DF92EF92FF9260910D01BC
:104F800070910E0180910F019091100161157105D2
:104F90008105910521F464E279ED8BE597E02DE13F
:104FA00033EF41E050E00E942D2849015A019B0156
:104FB000AC01A7EAB1E40E944C286B017C01ACEE85
:104FC000B4EFA50194010E945A28C60ED71EE81E10
:104FD000F91EF7FE06C081E0C81AD108E10880E892
:104FE000F80AC0920D01D0920E01E0920F01F092EA
:104FF0001001C701B6019F77FF90EF90DF90CF902F
:10500000BF90AF909F908F90089560930D01709323
:105010000E0180930F01909310010895FB01DC01B4
:1050200002C005900D9241505040D8F70895F9996B
:10503000FECF92BD81BDF89A992780B50895262F9D
:10504000F999FECF1FBA92BD81BD20BD0FB6F8946D
:10505000FA9AF99A0FBE01960895052E97FB1EF451
:1050600000940E94442857FD07D00E945F2807FC47
:1050700003D04EF40C9444285095409530952195DA
:105080003F4F4F4F5F4F0895909580957095619574
:105090007F4F8F4F9F4F08950E948128A59F900DAD
:1050A000B49F900DA49F800D911D11240895B7FF0A
:1050B0000C944C280E944C28821B930B0895A1E26B
:1050C0001A2EAA1BBB1BFD010DC0AA1FBB1FEE1F82
:1050D000FF1FA217B307E407F50720F0A21BB30BCD
:1050E000E40BF50B661F771F881F991F1A9469F749
:1050F00060957095809590959B01AC01BD01CF01A5
:105100000895A29FB001B39FC001A39F700D811DA0
:105110001124911DB29F700D811D1124911D0895C0
:10512000DB018F939F930E944C28BF91AF91A29F68
:10513000800D911DA39F900DB29F900D1124089595
:10514000991B79E004C0991F961708F0961B881FD9
:105150007A95C9F78095089587FB082E062687FD66
:10516000819567FD61950E94A0280EF4919507FC3A
:1051700081950895AA1BBB1B51E107C0AA1FBB1F45
:10518000A617B70710F0A61BB70B881F991F5A95D3
:10519000A9F780959095BC01CD01089597FB072E46
:1051A00016F4009407D077FD09D00E94BA2807FCB6
:1051B00005D03EF4909581959F4F08957095619527
:1051C0007F4F08950E948128332312F48A1B9B0B82
:1051D0000C94EC280E948128B7FF0895821B930B42
:1051E0000895EE0FFF1F0590F491E02D0994F894B7
:0251F000FFCFEF
:1051F20010FFFFFFFF00E1000000000000010000BF
:10520200000040000000200000640010400800C1BF
:105212008081000000000000006B07D6088C078127
:1052220007D2079007AE07000000000F0C5B095B76
:0A5232000E5A0E535441525400006E
:00000001FF
